:020000040800F2
:1000000080780020B51400080107000803070008E5
:10001000070700080B0700080F0700080000000092
:1000200000000000000000000000000013070008AE
:10003000150700080000000017070008190700084E
:10004000CF140008CF140008CF140008CF14000804
:10005000CF140008CF140008CF140008CF140008F4
:10006000CF140008CF140008CF140008CF140008E4
:10007000CF140008CF140008CF140008CF140008D4
:10008000CF140008CF140008CF140008CF140008C4
:10009000CF140008CF140008CF140008CF140008B4
:1000A000CF140008CF140008CF140008CF140008A4
:1000B000CF140008CF140008CF140008CF14000894
:1000C000CF140008CF140008CF140008CF14000884
:1000D000CF1400082B140008CF140008CF14000818
:1000E000CF140008CF140008CF140008CF14000864
:1000F000CF140008CF140008CF140008CF14000854
:10010000CF140008CF140008CF140008CF14000843
:10011000CF140008CF140008CF140008CF14000833
:10012000CF140008CF140008CF140008CF14000823
:1001300000F002F800F063F80AA090E8000C824496
:100140008344AAF10107DA4501D100F058F8AFF273
:10015000090EBAE80F0013F0010F18BFFB1A43F0A5
:100160000103184790560000B056000010F8013BFC
:100170000A4413F0030408BF10F8014B1D1108BF17
:1001800010F8015B641E05D010F8016B641E01F8C5
:10019000016BF9D1002D15D010F8014B03F00C03C1
:1001A0000C2BA1EB04040ABF10F8013BA4EB831451
:1001B000A4EB032405F1010314F8016B5B1E01F8A5
:1001C000016BF9D5914238BF10F8013BD1D370478C
:1001D0000023002400250026103A28BF78C1FBD850
:1001E000520728BF30C148BF0B607047642903F035
:1001F000D582002070471FB51FBD10B510BD03F09C
:1002000097FB1146FFF7F7FF00F03FF903F0B5FB4E
:1002100003B4FFF7F2FF03BC01F0ACF8F8B50746F2
:1002200000242EE0FE49601C51F82000FD4990FB9F
:10023000F1F5FB4850F82400491090FBF1F64FF619
:10024000FF7004F110020090501E2B46314600F062
:1002500092FDF549601C51F82000F24990FBF1F540
:10026000F14850F82400491090FBF1F6002004F109
:1002700010020090501E2B46314600F07CFD601CA1
:1002800084B27F2CCEDB002407E0E74850F824003E
:10029000E34941F82400601C84B2802CF5DBF8BDF2
:1002A00070B5E24A1268E14B1A60024600EBD27464
:1002B00064101D4655F82440034600EBD3756D10BD
:1002C000DA4E46F8254001210FE0D84A52F82120A5
:1002D000431AD64C54F823301A44234643F82120BD
:1002E0000022431A44F82320491C00EBD073B1EBE1
:1002F000630FEAD370BD2DE9F04F8BB005460E4673
:10030000002454E0CA4830F8240007B2C84850F826
:1003100024004FEA2048384603F0C6FF4FF08541DD
:10032000099003F0EDFF83464FF08E4103F0BEFECF
:100330008146404603F0B8FF4FF08541099003F035
:10034000DFFF83464FF08E4103F0B0FE8246284621
:1003500003F0CCFCCDE906015146504603F0D0FF36
:1003600049460190484603F0CBFF0090019903F005
:100370003BFE834603F00CFECDE9020103F006FBD1
:10038000CDE90401DDE9062303F058FBCDE90801BE
:1003900003F022FB0A904FF08F410A9803F0B0FF60
:1003A000834603F061FFA14941F82400641CAC427C
:1003B000A8D3A0A0864202D12846FFF771FF0BB058
:1003C000BDE8F08F2DE9F04F87B005460E46174681
:1003D0009846DDF840A0304603F066FF06903846A8
:1003E00003F062FF0590404603F05EFF0490504624
:1003F00003F05AFF8346002417E000F0F3FE01905B
:1004000003F06AFF4FF08B41029003F04FFE8146EC
:100410004946584603F074FF0390039803F008FF21
:100420000004814941F82400641CAC42E5D307B0C4
:10043000BDE8F08F68B505460E4647F6FF7000230D
:1004400022464FF4FA5100904FF48060FFF7BAFF54
:100450004FF480627449764802F066F877A14FF451
:100460008060FFF748FF4FF49B70FFF7D7FE754899
:1004700075A10268794803F049F940F2FF73774AA1
:100480000021084600F092FD68BD00F009FF00F071
:100490009FFA00F063FE4FF6FF7000F0BEFB4FF6D0
:1004A000FF706F49086000F059FE03E01E21084606
:1004B000FFF7C0FFFAE72DE9F84F8046894600258F
:1004C0000020604908600124DFE04FF6FF7004F16E
:1004D000010C4FEA8C0CDFF88CA100905AF82CA08C
:1004E00004F1010C4FF0010B0BEB8C0CDFF874B135
:1004F0005BF82CC0E24404F1010C4FF0020B0BEB53
:100500008C0CDFF860B15BF82CC0E24404F1010C04
:100510004FF0030B0BEB8C0CDFF848B15BF82CC0F1
:100520000AEB0C064FEAE67C06EB5C7C4FEAEC0C2F
:10053000CCF146034FEA840CDA465AF82CC04FF04F
:10054000010A0AEB840A5BF82AA0D4444FF0020A9D
:100550000AEB840A5BF82AA0D4444FF0030A0AEBA2
:10056000840A5BF82AA00CEB0A074FEAE77C07EB4A
:100570005C7C4FEAEC0CCCF1460104F11002501EF9
:1005800000F0F9FB002004F1010C4FEA8C0CDFF8BD
:100590009CA000905AF82CA004F1010C4FF0010B24
:1005A0000BEB8C0CDFF884B05BF82CC0E24404F158
:1005B000010C4FF0020B0BEB8C0CDFF870B05BF80A
:1005C0002CC0E24404F1010C4FF0030B0BEB8C0C3C
:1005D000DFF858B05BF82CC00AEB0C064FEAE67C5B
:1005E00006EB5C7C4FEAEC0CCCF146034FEA840C42
:1005F000DA465AF82CC04FF0010A0AEB840A5BF87D
:100600002AA0D4444FF0020A0AEB840A5BF82AA01D
:10061000D4444FF0030A0AEB840A5BF82AA023E0D3
:1006200058510020002D3101F4180020F43800202A
:10063000F4280020315349444544000032534944D2
:1006400045440000F00F0020202020202020202002
:10065000256420485A20202020200000F45000204B
:100660006C130020586100200CEB0A074FEAE77C6E
:1006700007EB5C7C4FEAEC0CCCF1460104F1100274
:10068000501E00F078FB601C84B27F2CFFF61DAF7B
:10069000012411E0154850F82400154941F82400C0
:1006A000124850F82400A84204DD104850F82450A5
:1006B00010480460601C84B2B4F5007FEADB0D488A
:1006C000006803F0F1FD82460B4903F019FE07466E
:1006D0000A4903F0EBFC064603F0AAFD0549086051
:1006E000142D01DA00200860BDE8F88FF4380020EE
:1006F00058610020F00F002000409C460000F943A4
:10070000704700BFFEE700BFFEE700BFFEE700BF87
:10071000FEE7704770477047704700000CB5002037
:10072000019000906C48006840F480306A4908608D
:1007300000BF6948006800F4003000900198401C38
:100740000190009818B90198B0F5A06FF1D16248F6
:10075000006800F4003010B10120009001E000209A
:1007600000900098012843D15C48006840F01000D8
:100770005A4908600846006820F0030008600846EF
:10078000006840F0020008605348406852494860E1
:100790000846406848600846406840F48060486009
:1007A0000846406820F47C1048600846406840F4E1
:1007B000E81048600846006840F08070086000BF9C
:1007C0004548006800F000700028F9D042484068B1
:1007D00020F00300404948600846406840F00200AD
:1007E000486000BF3C48406800F00C000828F9D180
:1007F0000CBD10B5FFF792FF10BD10B5364800686C
:1008000040F0010034490860084640683449084017
:100810003149486008460068324908402E4908605E
:100820000846006820F4802008600846406820F4EC
:10083000FE0048604FF41F008860FFF7DAFF4FF0BA
:1008400000602949086010BD10B500210020002279
:10085000214B5B6803F00C0121B1042906D0082963
:1008600028D107E0214B224C236027E01F4B204C6E
:10087000236023E0184B5B6803F47010164B5B6831
:1008800003F48032022303EB904022B9194B434317
:10089000174C23600DE0104B5B6803F4003323B169
:1008A000144B4343124C236003E0104B4343104C62
:1008B000236003E00D4B0E4C236000BF00BF064BCE
:1008C0005B68C3F303130C4CE15C094B1B68CB4022
:1008D000074C236010BD00000010024000200240C1
:1008E0000000FFF8FFFFF6FE08ED00E000127A00BE
:1008F000F80F002000093D00FC0F002070B50446F1
:100900001021FC4800F073FF002517E02021F94872
:1009100000F06DFF04F0800020B18021F54800F068
:1009200064FF03E08021F34800F061FF2021F148DB
:1009300000F05BFF6006040E681CC5B2082DE5DB05
:100940001021EC4800F051FF70BD10B504460221A3
:10095000E94800F04AFF2046FFF7D0FF10BD10B570
:1009600004460221E44800F040FFC4F30720FFF7EB
:10097000C5FFE0B2FFF7C2FF10BD10B5044602216B
:10098000DD4800F034FF2046FFF7B8FF10BD2DE929
:10099000F04106460C4617461D461A3C1A352A20D9
:1009A000FFF7EBFF701CFFF7DAFF781CFFF7D7FFAC
:1009B0002B20FFF7E2FF04F11A00FFF7D0FF05F14B
:1009C0001A00FFF7CCFF2C20FFF7D7FFBDE8F0811E
:1009D00008B50121042001F017F9B020ADF800009E
:1009E00010208DF8030003208DF802006946C148ED
:1009F00000F04EFEB021BF4800F0F7FE01210820B4
:100A000001F002F940F20340ADF8000010208DF82B
:100A1000030003208DF802006946B74800F038FE55
:100A200040F20341B44800F0E0FE0121B24800F07A
:100A3000DEFEC82000F071FC0121AF4800F0D5FEB9
:100A4000142000F06AFC4FF48061AB4800F0CDFE4A
:100A50001120FFF792FF642000F05FFC2120FFF7D8
:100A60008CFFB120FFF789FF0520FFF76EFF3A20CA
:100A7000FFF76BFF3A20FFF768FFB220FFF77DFF1B
:100A80000520FFF762FF3A20FFF75FFF3A20FFF7EC
:100A90005CFFB320FFF771FF0520FFF756FF3A20F8
:100AA000FFF753FF3A20FFF750FF0520FFF74DFFF8
:100AB0003A20FFF74AFF3A20FFF747FFB420FFF73D
:100AC0005CFF0320FFF741FFC020FFF756FF6220C5
:100AD000FFF73BFF0220FFF738FF0420FFF735FF49
:100AE000C120FFF74AFFC020FFF72FFFC220FFF70A
:100AF00044FF0D20FFF729FF0020FFF726FFC3204A
:100B0000FFF73BFF8D20FFF720FF6A20FFF71DFF57
:100B1000C420FFF732FF8D20FFF717FFEE20FFF70D
:100B200014FFC520FFF729FF0E20FFF70EFFE0207E
:100B3000FFF723FF1020FFF708FF0E20FFF705FF48
:100B40000220FFF702FF0320FFF7FFFE0E20FFF752
:100B5000FCFE0720FFF7F9FE0220FFF7F6FE072054
:100B6000FFF7F3FE0A20FFF7F0FE1220FFF7EDFE7D
:100B70002720FFF7EAFE3720FFF7E7FE0020FFF708
:100B8000E4FE0D20FFF7E1FE0E20FFF7DEFE102051
:100B9000FFF7DBFEE120FFF7F0FE1020FFF7D5FEA8
:100BA0000E20FFF7D2FE0320FFF7CFFE0320FFF752
:100BB000CCFE0F20FFF7C9FE0620FFF7C6FE02207D
:100BC000FFF7C3FE0820FFF7C0FE0A20FFF7BDFEB7
:100BD0001320FFF7BAFE2620FFF7B7FE3620FFF7F7
:100BE000B4FE0020FFF7B1FE0D20FFF7AEFE0E2091
:100BF000FFF7ABFE1020FFF7A8FE3A20FFF7BDFE7F
:100C00000520FFF7A2FE3620FFF7B7FE7820FFF79A
:100C10009CFE2920FFF7B1FE08BD70B506467F2374
:100C20009F2200210846FFF7B2FE002408E00025BD
:100C300003E03046FFF793FE6D1C802DF9D3641C52
:100C4000A02CF4D370BD2DE9F05F81468A4693460F
:100C50001C46102C00D1294D202C00D1284D0AEB28
:100C60000400431E09EB0400421E51464846FFF7AC
:100C70008EFE04FB04F0C11700EB5171C1F3C708ED
:100C80000BFB0855002715E000260EE0287801210F
:100C9000B140084018B10A98FFF761FE03E0194817
:100CA0000068FFF75CFE701CC6B2082EEEDB6D1C00
:100CB000781CC7B24745E7DBBDE8F09F70B5044636
:100CC0000D4616462B46224629462046FFF75FFE74
:100CD0003046FFF744FE70BD2DE9F04104468846DA
:100CE00015461E460027324641462046FFF7E6FFDE
:100CF00000BF11E000080140000C01408C120020F0
:100D00000C1000206C130020601CC4B23246414617
:100D10002046FFF7D3FF7F1CAF42F5D3BDE8F0813B
:100D20002DE9F04704460D4616461F46DDF820A083
:100D30003B46324629462046FFF729FEA8460AE0F0
:100D4000A14604E05046FFF70AFE09F10109B1454A
:100D5000F8D908F10108B845F2D9BDE8F087F8B52F
:100D600004460D461646691E601E6B1C621C0096EA
:100D7000FFF7D6FFF8BD2DE9FF4F85B081468A46C3
:100D80000020039083460798A0EB09040898A0EB85
:100D90000A06CDF80890CDF804A0002C01DD01274B
:100DA00005E00CB9002702E04FF0FF376442002E47
:100DB00002DD4FF0010806E016B94FF0000802E02E
:100DC0004FF0FF386642B44201DD254600E035466B
:100DD000002004901BE0129ADDE90110FFF76EFF7E
:100DE000039820440390B3440398A84205DD039878
:100DF000401B0390029838440290AB4504DDABEBF6
:100E0000050B0198404401900498401C0490691C13
:100E100004988842DFD309B0BDE8F08F2DE9F8438C
:100E200005460E4617469846089C33463A463146D4
:100E300028460094FFF79FFF43462A46314628463E
:100E40000094FFF798FF43463A46414628460094EF
:100E5000FFF791FF43463A46314638460094FFF784
:100E60008AFFBDE8F8832DE9F04706460F46904615
:100E700099460025444631E0791B301B4A46FFF76E
:100E80001DFF791B30194A46FFF718FF3919701BEF
:100E90004A46FFF713FF391B701B4A46FFF70EFF48
:100EA000791930194A46FFF709FF391B70194A466C
:100EB000FFF704FF391970194A46FFF7FFFE791949
:100EC000301B4A46FFF7FAFE6D1C05FB05F004FBDC
:100ED000040108FB08F0814200DD641EA542CBDD61
:100EE000BDE8F0872DE9F84F05460F4616469A46AD
:100EF000DDF828B00095902D01D8702F01D9BDE8FC
:100F0000F88FA6F12000C6B207F10F03EA1D39469B
:100F10002846FFF73CFDBAF1000F25D1002420E060
:100F200004EB0610894911F800904FF0000811E019
:100F300009F0010018B15846FFF711FD03E084489D
:100F40000068FFF70CFD4FEA69096D1C08F101000C
:100F500000F0FF08B8F1080FEADB009D7F1C601C61
:100F6000C4B2102CDCDB1FE000241BE004EB0610F5
:100F7000764911F800904FF000080EE009F00100EA
:100F800028B1391905EB08005A46FFF797FE4FEADA
:100F9000690908F1010000F0FF08B8F1080FEDDB66
:100FA000601CC4B2102CE1DB00BFA8E7F8B5054611
:100FB0000E4614461F4615E0902D01D90025103627
:100FC000702E06D90020054606464FF47840FFF7FC
:100FD00024FE00972278002331462846FFF782FF3F
:100FE0000835641C20780028E6D1F8BD10B502460B
:100FF000012000E050430B1EA1F10104E1B2F9D140
:1010000010BD2DE9F84F06468A4690461D46DDF88C
:1010100028904FF0000B00242FE0281B401EC1B287
:101020000A20FFF7E3FFB8FBF0F00A21B0FBF1F272
:1010300001FB1207BBF1000F10D1681EA0420DDDAD
:1010400057B9082101FB0460002320225146CDF846
:101050000090FFF747FF0EE04FF0010B07F1300162
:10106000CAB2082101FB046000235146CDF800906C
:10107000FFF738FF00BF601CC4B2AC42CDDBBDE857
:10108000F88F2DE9FC5F06468A4617461C46DDF8B8
:101090003080002001902F49384603F031F900904C
:1010A00003F0E2F8834600252CE0601B401EC1B22D
:1010B0000A20FFF79BFFBBFBF0F00A21B0FBF1F227
:1010C00001FB1209A01EA8420ED1A11E082202FB9C
:1010D000016000232E225146CDF80080FFF702FF69
:1010E000681CC5B2601CC4B209F13001CAB2082143
:1010F00001FB056000235146CDF80080FFF7F2FEAA
:10110000681CC5B2A542D0DBBDE8FC9F2DE9F041CB
:1011100005460E461746984643463A463146284607
:10112000FFF735FC00240CE0012101EB44010A4AE1
:10113000505CFFF70AFC084911F81400FFF705FCA2
:10114000641CB4F5C86FEFDBBDE8F0818245000890
:101150006C1300200000C842724B000800B587B035
:101160000121480200F050FD0121042000F04CFD57
:101170000820ADF8180000208DF81B0006A946488D
:1011800000F086FA002001908DF808008DF8090023
:101190004FF4602003900020049001208DF814008B
:1011A00001A93E4800F0BFFF0723012203213B486D
:1011B00001F051F80121394800F0E1FF374801F012
:1011C00000F800BF354801F001F80028FAD1334893
:1011D00001F006F800BF314801F007F80028FAD105
:1011E00007B000BD10B50723012203212B4801F0F1
:1011F00032F80121294800F0C2FF284800F0E1FF41
:10120000072301220321254801F025F80121234865
:1012100000F0B5FF214800F0D4FF0723012203218D
:101220001E4801F018F801211C4800F0A8FF1B48D7
:1012300000F0C7FF0121194800F0E1FF00BF0221C3
:10124000164801F04DF90028F9D0144801F06AF869
:1012500004460121114800F0D2FF00BF02210F48CF
:1012600001F03EF90028F9D00C4801F05BF8044683
:10127000204610BD10B50121084800F0C0FF00BF96
:101280000221064801F02CF90028F9D0034801F0AA
:1012900049F80446204610BD0008014000240140E2
:1012A00010B56FF0040000F074F92E4800682E4964
:1012B000B0FBF1F02D4908700846007800EB4001C2
:1012C000C1EBC0104FF6FF7101EAC0002849088049
:1012D00010BD0146254A12784A434FF0E0235A6177
:1012E00000229A611A46126942F001021A6100BF97
:1012F0004FF0E022106900F001021AB100F48032D0
:10130000002AF5D04FF0E022126922F001024FF0DE
:10131000E0231A6100229A6170470146144A12883C
:101320004A434FF0E0235A6100229A611A4612693B
:1013300042F001021A6100BF4FF0E022106900F094
:1013400001021AB100F48032002AF5D04FF0E022F9
:10135000126922F001024FF0E0231A6100229A6123
:1013600070470000F80F002000127A007013002070
:1013700072130020014600BF704700BF494A12881F
:1013800002F04002002AF9D0C2B2464B1B1D1A805F
:10139000704710B586B00446012144F2050000F004
:1013A00033FC4FF40070ADF8140003208DF81600E4
:1013B00018208DF8170005A93B4800F069F94FF493
:1013C0008060ADF8140004208DF8170005A9364898
:1013D00000F05EF925208DF8000003208DF8010053
:1013E0008DF8020001208DF80300684600F087F8B0
:1013F00001940020ADF80800ADF80A00ADF80C002B
:10140000ADF810000C20ADF80E0001A9254800F041
:10141000A2FC012240F22551224800F034FD0121B6
:10142000204800F024FD06B010BD10B540F2255153
:101430001C4800F00DFE10B31A4800F089FDC4B23C
:101440001A48008800F40040C8B91848008800F421
:10145000804060B10A2C03D000201449088020E0AD
:101460001248008840F400401049088019E00D2C13
:1014700006D10E48008840F480400C49088010E0F6
:101480000A480088C0F30D0009490C540748008839
:10149000401C0649088008460088C72801DD002056
:1014A000088010BD0038014000080140781300207A
:1014B000587100200948804709480047FEE7FEE7C9
:1014C000FEE7FEE7FEE7FEE7FEE7FEE7FEE7FEE7F4
:1014D00004480549054A064B70470000FB07000811
:1014E0003101000880720020807800208074002084
:1014F0008074002031490143314A1160704770B552
:10150000002100230F22C47804B32D4C246804F476
:10151000E064C4F5E064210AC1F10403CA404478E0
:1015200004FA03F18478144021430901254C06781C
:10153000A155047804F01F050124AC4005786D1115
:10154000AD0005F1E025C5F8004109E0047804F09C
:101550001F050124AC401C4D0678761145F8264045
:1015600070BD1A4A0A400243154B1B1F1A60704790
:1015700039B1134A121D12680243114B1B1D1A6028
:1015800006E00F4A121D126882430D4B1B1D1A60A4
:101590007047042808D14FF0E021096941F00401A7
:1015A0004FF0E022116107E04FF0E021096921F0DE
:1015B00004014FF0E0221161704700000000FA05BD
:1015C0000CED00E000E400E080E100E080FFFF1FA0
:1015D00010B50446CC48844208D10121042000F013
:1015E0002DFB0021042000F029FB46E0C74884427F
:1015F00008D10121082000F021FB0021082000F083
:101600001DFB3AE0C248844208D10121102000F0BD
:1016100015FB0021102000F011FB2EE0BD48844294
:1016200008D10121202000F009FB0021202000F03A
:1016300005FB22E0B848844208D10121402000F097
:10164000FDFA0021402000F0F9FA16E0B348844288
:1016500008D10121802000F0F1FA0021802000F063
:10166000EDFA0AE0AE48844207D10121801500F06E
:10167000E5FA0021A01500F0E1FA10BD10B5012136
:10168000084600F0DBFA0021012000F0D7FA10BD77
:101690002DE9F04102460025002600200023002409
:1016A000002791F803C00CF00F0591F803C00CF06F
:1016B000100CBCF1000F03D091F802C04CEA0505F4
:1016C00091F800C0BCF1000F31D0146800202BE06D
:1016D0004FF0010C0CFA00F3B1F800C00CEA03065D
:1016E0009E4220D183004FF00F0C0CFA03F7BC434D
:1016F00005FA03FC4CEA040491F803C0BCF1280F7E
:1017000006D14FF0010C0CFA00FCC2F814C00AE03C
:1017100091F803C0BCF1480F05D14FF0010C0CFA51
:1017200000FCC2F810C0401C0828D1D31460B1F8E6
:1017300000C0BCF1FF0F34DD546800202EE000F142
:10174000080C4FF0010808FA0CF3B1F800C00CEADD
:1017500003069E4221D183004FF00F0C0CFA03F7D1
:10176000BC4305FA03FC4CEA040491F803C0BCF145
:10177000280F05D100F1080C08FA0CF8C2F8148003
:1017800091F803C0BCF1480F07D100F1080C4FF0ED
:10179000010808FA0CF8C2F81080401C0828CED3C3
:1017A0005460BDE8F0814FF6FF7101800221817025
:1017B0000421C17070470246002093680B400BB1B2
:1017C000012000E0002070470146886880B2704721
:1017D00002460020D3680B400BB1012000E000203E
:1017E00070470146C86880B2704701617047416127
:1017F00070470AB1016100E041617047C160704704
:101800004FF480320A438261816182618269826918
:10181000704702460020434B18684FF6807318400B
:1018200040EA021008433F4B186070473E49C861C8
:101830007047F0B50A46002300240021002500F07F
:101840000046B6F1004F02D1364EF16901E0354E47
:101850007168C0F3034583B200F44016B6F5401F2B
:1018600008D121F070612F4E766826F070662D4FFA
:101870007E6012E000F48016B6F5801F06D10326C4
:1018800006FA05F4A14341F0706106E0460D360109
:1018900003FA06F6B14341F0706122B1460D3601FC
:1018A00003FA06F6314300F00046B6F1004F02D1CC
:1018B0001C4EF16101E01B4E7160F0BD30B500229D
:1018C0008B071C0F0F2303FA04F2164B08338C10FE
:1018D00053F824309343134C08348D1044F82530CA
:1018E00023468C1053F824308C07240F00FA04F49C
:1018F00023430C4C08348D1044F8253030BD0A4980
:10190000DC3108607047000000080140000C014015
:10191000001001400014014000180140001C01406B
:10192000002001400000014000002042DF48006824
:1019300040F00100DD49086008464068DC49084085
:10194000DA49486008460068DA490840D749086023
:101950000846006820F4802008600846406820F4AB
:10196000FE0048604FF41F0088607047CF49096847
:1019700021F48031CD4A11601146096821F480219B
:101980001160B0F5803F03D0B0F5802F0ED106E096
:10199000C649096841F48031C44A116007E0C3496F
:1019A000096841F4A021C14A116000E000BF00BFF6
:1019B000704710B501460022002300204A11012A79
:1019C00002D1BA4C236806E0022A02D1B74C236A3E
:1019D00001E0B64C636A01F01F02012494401C40F0
:1019E0000CB1012000E0002010BD38B500200090AF
:1019F0000024002500BF3120FFF7DBFF05460098DB
:101A0000401C00900098B0F5A06F01D0002DF2D0DE
:101A10003120FFF7CEFF08B1012400E0002420466A
:101A200038BD01460020A14A106820F0F80040EAC5
:101A3000C10010607047A04908607047024600204E
:101A40009A4B586820F47C1042EA01031843974BE4
:101A50005860704798490866704701460020934ACD
:101A6000506820F003000843506070478F4840687A
:101A700000F00C007047014600208C4A506820F0AE
:101A8000F00008435060704701460020874A5068C4
:101A900020F4E06008435060704701460020834A0C
:101AA000506820F4605040EAC1005060704729B18E
:101AB0007E4A527A02437D4B5A7204E07B4A527A44
:101AC00082437A4B5A7270477B49D831086070471D
:101AD00001460020754A506820F440400843506099
:101AE00070470021714A20321170704A82F820102C
:101AF000012802D004280AD104E001216B4A2032D7
:101B0000117005E00521694A2032117000E000BF24
:101B100000BF70476949086070476449096A01431A
:101B2000624A11627047654944390860704730B5B0
:101B300000210022002400235C4D6D6805F00C019B
:101B400021B1042905D0082923D105E05C4D0560A9
:101B500022E05B4D05601FE0544D6D6805F4701286
:101B6000524D6D6805F48034022505EB92421CB994
:101B7000544D554305600BE04C4D6D6805F4003540
:101B80001DB1504D5543056002E04D4D5543056074
:101B900002E04B4D056000BF00BF444D6D6805F08D
:101BA000F0010909484D6B5C0568DD4045603F4D1B
:101BB0006D6805F4E061090A434D6B5C4568DD40E2
:101BC00085603A4D6D6805F46051C90A3E4D6B5C05
:101BD0004568DD40C560354D6D6805F44041890BB1
:101BE0003A4D6B5CC568B5FBF3F5056130BD29B1B5
:101BF0002E4A526902432D4B5A6104E02B4A526926
:101C000082432A4B5A61704729B1284A926902439C
:101C1000264B9A6104E0254A92698243234B9A61DC
:101C2000704729B1214AD2690243204BDA6104E0AE
:101C30001E4AD26982431D4BDA61704729B11B4AA3
:101C4000D2680243194BDA6004E0184AD268824332
:101C5000164BDA60704729B1144A12690243134BDC
:101C60001A6104E0114A12698243104B1A617047ED
:101C700012494039086070470F49C86470470B49E2
:101C8000C87170470948406A40F08070074948624F
:101C9000704701460020054A92680A400AB10120B7
:101CA00000E0002070470149887270470010024030
:101CB0000000FFF8FFFFF6FE0000424280044242AF
:101CC00000127A0000093D007A1300208A130020D8
:101CD00010B50446FB48844209D101218803FFF76F
:101CE000ADFF00214FF48040FFF7A8FF32E0F64837
:101CF000844209D101214804FFF7ADFF00214FF4D0
:101D00000030FFF7A8FF25E0F048844209D1012107
:101D10008804FFF7A0FF00214FF48020FFF79BFF0E
:101D200018E0EB48844209D10121C804FFF793FF72
:101D300000214FF40020FFF78EFF0BE0E5488442BE
:101D400008D101210805FFF786FF00214FF480101C
:101D5000FFF781FF10BD2DE9F04786B005460E461E
:101D60000024A24600BFA1460027B08900B100BFF1
:101D70002F462C8A4CF6FF700440F08804432C82D6
:101D8000AC894EF6F3100440B0883189084371895C
:101D900008430443AC81AC8A4FF6FF400440B0894D
:101DA0000443AC8201A8FFF7C2FEC648874202D1B5
:101DB000DDF810A001E0DDF80CA0A88900F40040D7
:101DC00040B10AEBCA0000EB0A1031684900B0FBD1
:101DD000F1F807E00AEBCA0000EB0A10316889004D
:101DE000B0FBF1F86420B8FBF0F004012009642195
:101DF00001FB1089A88900F4004040B1322000EBBB
:101E0000C900B0FBF1F000F00700044308E0322005
:101E100000EB09106421B0FBF1F000F00F00044367
:101E20002C8106B0BDE8F0874FF416510160002107
:101E30008180C18001810C21418100218181704715
:101E400010B502460020108A4FF2FF0318400B889D
:101E50004C8823438C882343CC8823431843108227
:101E600010BD0021018041808180C180704721B177
:101E7000828942F40052828104E082894DF6FF7328
:101E80001A4082817047F0B50346002400260025E1
:101E9000002040F66A17B94200D100BF1846C1F3CE
:101EA000421401F01F06012707FA06F5012C01D1A3
:101EB0000C3004E0022C01D1103000E014301AB1D3
:101EC00007682F43076002E00768AF430760F0BD73
:101ED0001AB1838A0B43838202E0838A8B43838215
:101EE0007047028A4FF6F0731A400282028A0A4350
:101EF0000282704782894FF2FF731A408281828981
:101F00000A438281704721B1828942F002028281B4
:101F100004E082894FF6FD731A4082817047028A7D
:101F20004FF6DF731A400282028A0A430282704728
:101F300021B1028A42F48042028204E0028A4BF616
:101F4000FF731A4002827047C1F308028280704713
:101F500001468888C0F308007047818941F001017B
:101F600081817047028BD2B20283028B42EA012246
:101F700002837047028B02F47F420283028B0A4382
:101F80000283704721B1828A42F02002828204E0FB
:101F9000828A4FF6DF731A408282704721B1828AAB
:101FA00042F01002828204E0828A4FF6EF731A40F8
:101FB0008282704721B1828A42F00802828204E064
:101FC000828A4FF6F7731A408282704721B1828964
:101FD00042F40042828103E08289C2F30E028281D0
:101FE000704721B1828A42F40062828204E0828AD0
:101FF0004FF2FF731A4082827047828A4FF6FB735A
:102000001A408282828A0A438282704721B1828A80
:1020100042F00202828204E0828A4FF6FD731A4087
:102020008282704702460020B1F5007F00D100BFD8
:1020300013880B400BB1012000E00020704701F431
:102040000072B2F5007F00D100BFCA430280704722
:1020500070B50246002400230025002040F66A16D1
:10206000B14200D100BFC1F3421501F01F030126A8
:1020700006FA03F3012D02D19689334006E0022DC2
:1020800002D1168A334001E0968A33400C120126B1
:1020900006FA04F41688344013B10CB1012000E0B4
:1020A000002070BD10B50022002340F66A14A14242
:1020B00000D100BF0A1201249440A3B2DC43048083
:1020C00010BD0000003801400044004000480040BE
:1020D000004C00400050004010B50446FA488442CD
:1020E00008D101214015FFF7A9FD00216015FFF778
:1020F000A5FD17E0F548844208D101210015FFF73E
:102100009DFD00212015FFF799FD0BE0F04884426A
:1021100008D10121C803FFF791FD00214FF40040D1
:10212000FFF78CFD10BD30B502460020002350683B
:10213000E84C20400D790C6844EA052420435060A7
:102140009068E54C2040D1E902542C434D7944EA93
:10215000450420439060D06A20F470000C7C641E1B
:10216000E4B2234340EA0350D06230BD0021016055
:10217000017141718160C16001210174704721B119
:10218000826842F00102826003E0826822F001026C
:102190008260704721B1826842F48072826003E0FD
:1021A000826822F480728260704710B50023CBB23F
:1021B0001AB144681C43446002E044689C43446094
:1021C00010BD816841F00801816070470146002020
:1021D0008A6802F008020AB1012000E0002070477E
:1021E000816841F0040181607047014600208A68DF
:1021F00002F004020AB1012000E00020704721B182
:10220000826842F4A002826003E0826822F4A002A5
:1022100082607047014600208A6802F480020AB199
:10222000012000E00020704710B50A46002100237D
:10223000416821F46041531E41EA4331416010BDC1
:1022400021B1426842F40062426003E0426822F435
:10225000006242607047F0B504460D460020002140
:10226000092D11DDE068A5F10A0606EB46070726F1
:1022700006FA07F18843A5F10A0606EB460603FABB
:1022800006F10843E0600CE0206905EB45070726EE
:1022900006FA07F1884305EB450603FA06F1084301
:1022A0002061072A0FDA606B561E06EB86071F2691
:1022B00006FA07F18843561E06EB860605FA06F174
:1022C0000843606322E00D2A0FDA206BD61F06EB6D
:1022D00086071F2606FA07F18843D61F06EB8606F7
:1022E00005FA06F10843206310E0E06AA2F10D064A
:1022F00006EB86071F2606FA07F18843A2F10D06B2
:1023000006EB860605FA06F10843E062F0BD21B14E
:10231000826842F48012826003E0826822F48012B4
:10232000826070470146C86C80B2704766484C3086
:102330000068704721B1426842F48062426003E065
:10234000426822F480624260704721B1426842F4E0
:102350008052426003E0426822F48052426070473B
:102360000A460021816821F4E041114381607047F1
:1023700021B1826842F40042826003E0826822F464
:1023800000428260704721B1826842F4021282608A
:1023900003E0826822F40212826070470146002046
:1023A0008A6802F400120AB1012000E000207047A0
:1023B000F0B504461546002000220026092911DD4B
:1023C000E068A1F10A0707EB470C072707FA0CF2B0
:1023D0009043A1F10A0707EB470703FA07F21043FE
:1023E000E0600CE0206901EB410C072707FA0CF2D2
:1023F000904301EB410703FA07F210432061A06B01
:10240000C0F30156EF1C06F1010CA7EB0C0707EB1C
:10241000870C1F2707FA0CF29043EF1C06F1010C02
:10242000A7EB0C0707EB870701FA07F21043A0633D
:10243000F0BD10B50A4600210023816B21F4401144
:10244000531E41EA0351816310BD08B50023009378
:102450000090009B0B440093009B1A6008BD08B5D8
:10246000024600200090009201F12800009B1844D1
:1024700000900098006880B208BD0A4600214168BB
:10248000164B1940114341607047416282627047A8
:102490000A460021416821F01F0111434160704745
:1024A00040B109490831096841F40001064A08327F
:1024B000116007E004490831096821F40001024A6B
:1024C00008321160704700000024014000280140DC
:1024D000003C0140FFFEF0FFFDF7F1FFFFFD3FFF75
:1024E0000246002013680B400BB1012000E00020E1
:1024F0007047CA430260704770B50246002000234F
:1025000000240B125568CEB205EA060415681D407A
:1025100015B10CB1012000E0002070BD00220A12AC
:10252000D3430360704700002DE9F04F4FF0000CDB
:102530004FF0000301EB9C5EBEF90250BEF9004073
:102540000EF5806EBEF90290BEF900800EF5806E29
:10255000BEF90270BEF900600EF5806EBEF902B0E1
:10256000BEF900A00EF5806ED044D944A8EB4A0A0B
:10257000A9EB4B0B4FEAA4044FEAA50504EBA60414
:1025800005EBA705A4EB6606A5EB670704EBA8041B
:1025900005EBA905A4EB6808A5EB690906EBAB06FA
:1025A000A7EBAA07A6EB6B0B07EB6A0A458020F89E
:1025B000044B478020F8046BA0F8029020F8048BAD
:1025C000A0F802A020F804BB03F1010393FAA3FCD6
:1025D000B3F5807FAED1A0EB82014FF0100312095A
:1025E0000FF2341000F1000006B403EB430C614419
:1025F000A2F5803202EB8332B1F90250B1F900400A
:10260000A1EB0301B0F902B0B0F900A000F10400A1
:10261000A5EB040E0EFB0BFC0AEB4B0E05FB0ACBE5
:1026200004FB0ECAB1F90250B1F90040A1EB03015D
:10263000B0F90290B0F9008000F10400A5EB040E9F
:102640000EFB09FC08EB490E05FB08C904FB0EC88C
:10265000B1F90250B1F90040A1EB0301B0F90270E9
:10266000B0F9006000F10400A5EB040E0EFB07FCBE
:1026700006EB470E05FB06C704FB0EC6B1F9025078
:10268000B1F9004001F10001D044D944A8EB4A0A55
:10269000A9EB4B0B4FEAA4044FEAA50504EB264433
:1026A00005EB2745A4EBE636A5EBE73704EB28441A
:1026B00005EB2945A4EBE838A5EBE93906EB2B46F9
:1026C000A7EB2A47A6EBEB3B07EBEA3A4D800C80E1
:1026D00019444F800E801944A1F80290A1F800809F
:1026E0001944A1F802A021F804BBB2F5803283DAC4
:1026F00003EB430C6144A2F101025FEA024E18BFF2
:10270000A0EB0C007FF476AF06BC4FEA830392087F
:102710007FF46AAFBDE8F08F004000000040000089
:10272000004000005DDD213BA3227E180000412D0A
:102730007EA5412D0000412D00C000405DDD82E7F7
:102740005DDD213B7EA5412D0040000000400000E2
:1027500000400000AA2A94126B39460649327C0CCC
:10276000A8118E2349327C0CA3227E1821F77931DF
:10277000AA2A9412A8118E235DDD213BA3227E1884
:102780000000412D95C6B13F461A2B1E58EE373535
:10279000BEB4C53EA8118E235DDD213B63A971380F
:1027A000DF089A28B7CDC53E7EA5412D0000412DFA
:1027B00000C0004063A92B1E21F77931BEB4C53E8D
:1027C000BEB47C0C58EE373561AC213B95C6BAF9E6
:1027D000BAE571383BA737355DDD82E75DDD213B2A
:1027E0007EA5412D21F766D756D53F3D3BA78E23C9
:1027F000A811C9CAB7CDC53E61AC7E18AA2AC1C20C
:1028000095C6B13FBEB47C0C004000000040000003
:10281000004000001E3BB504693E9201C83C240301
:10282000EB356409C83C24036B3946066C30060E50
:102830001E3BB504EB356409AA2A94126B3946068F
:1028400049327C0CAE240917AF37D607882E8D0F7E
:102850007E1E5D1BEB356409AA2A941224188C1F76
:102860001E34F10AB3269015A8118E2349327C0C30
:10287000A3227E18140B60276C30060E7E1E5D1B93
:102880007104FB2A882E8D0F461A2B1EC7FD5A2E67
:102890009D2C1211FE15E72021F77931AA2A9412F6
:1028A000A8118E2387F05334B2281314480D202624
:1028B00002EAE536B3269015DF089A289CE32B3907
:1028C000AE2409177104FB2A5DDD213BA3227E188B
:1028D0000000412D4ED7C53C9320EF198FFB6C2F84
:1028E00078D1153E7E1E5D1B21F77931E2CB0F3F7B
:1028F000641CC61CB8F2683395C6B13F461A2B1E3D
:1029000058EE373597C1FB3F24188C1F02EAE53695
:10291000F0BCEC3FFE15E720BAE57138A6B8853F5C
:10292000D5133D2282E1DB39BEB4C53EA8118E230A
:102930005DDD213B40B1AF3D790FDA244DD9423CFA
:102940002EAE423C480D202656D53F3D8EAB823AF6
:10295000140B602778D1153E63A97138DF089A28D7
:10296000B7CDC53EB1A71236A906CE2915CA4F3F2D
:1029700078A668337104FB2A95C6B13FBCA57630B2
:102980003902212C38C3EC3F7EA5412D0000412D9A
:1029900000C00040BCA5CE29C7FD5A2EF0BCEC3FBC
:1029A00078A620268FFB6C2F09BAB13FB1A73D2234
:1029B00057F976304DB74F3F63A92B1E21F7793178
:1029C000BEB4C53E8EABEF19ECF474325EB2153E68
:1029D0002EAE9015B8F268332DB03F3D40B11211C4
:1029E00087F053342EAE423CBEB47C0C58EE3735E3
:1029F00061AC213BA6B8D6072BEC1236C8AADB394E
:102A0000F0BC240302EAE53663A9713897C16EFE73
:102A1000DCE7B03734A8E53695C6BAF9BAE57138BF
:102A20003BA73735E2CB0FF59CE32B3978A668330B
:102A300078D173F082E1DB39EDA579314ED7EDEB3A
:102A40006DDF823A99A56C2F5DDD82E75DDD213B6C
:102A50007EA5412D9CE33AE352DBB63B99A5FB2AC8
:102A600002EA19DF4DD9423CEDA59A2887F026DB12
:102A70004ED7C53C78A6202621F766D756D53F3DD0
:102A80003BA78E23C7FDDFD363D3AF3D34A8E72038
:102A9000710494D078D1153E63A92B1E140B8CCDF4
:102AA00094CF723EC8AA5D1BA811C9CAB7CDC53E56
:102AB00061AC7E18241850C8E2CB0F3F2EAE9015A3
:102AC0007E1E25C615CA4F3F2DB09412AE244AC4AF
:102AD00051C8853F5EB28D0FAA2AC1C295C6B13FCB
:102AE000BEB47C0C6C308EC1E2C4D43F4DB76409D7
:102AF000EB35B1C038C3EC3F09BA46061E3B2CC0CB
:102B000097C1FB3FF0BC24030040000000400000E0
:102B100000400000D03E2E019B3F6500363FC900BB
:102B20009A3D5B02363FC900693E92015F3C8803D3
:102B3000D03E2E019A3D5B021E3BB504693E9201D8
:102B4000C83C2403D939E205023EF701F43BED030A
:102B50008E380E079A3D5B021E3BB5043F3739089D
:102B6000313DC002463A7E05EB356409C83C24037A
:102B70006B39460692348E0A5F3C88038E380E0706
:102B80003433B70BF43BED03AF37D607D231DF0C4C
:102B90008A3B5104CE369D086C30060E1E3BB504B0
:102BA000EB356409022F2B0FB23A1A0505352B0AB3
:102BB000932D5010463A7E051E34F10A212C7311D4
:102BC000D939E2053433B70BAA2A94126B39460679
:102BD00049327C0C3129B413FD38AA065B31410D12
:102BE000B327D2148E380E076C30060E3226EE153F
:102BF0001F3872077B2FCA0EAE240917AF37D607CE
:102C0000882E8D0F262321183F373908932D501019
:102C10009C213719CE369D089D2C12110E204B1A7F
:102C20005D360109A42BD3117E1E5D1BEB356409B3
:102C3000AA2A9412EB1C6C1C7835C709AF295413CF
:102C4000561B791D05352B0AB2281314BE19841E94
:102C500092348E0AB327D21424188C1F1E34F10A22
:102C6000B326901588169120A933540BB1254C1624
:102C7000EA1493213433B70BAE2409174A13922276
:102C8000BF321A0CA923C417A8118E2349327C0C19
:102C9000A3227E1805108824D231DF0C9C2137191D
:102CA000610E7E255B31410D9320EF19BB0C71261F
:102CB000E430A40D891FA71A140B60276C30060E90
:102CC0007E1E5D1B6D094C28F42F680E721D121CB0
:102CD000C40735297B2FCA0E641CC61C1B061A2A82
:102CE000022F2B0F561B791D7104FB2A882E8D0F86
:102CF000461A2B1EC702D82B0E2EEE0F3519DC1EDE
:102D00001C01B22C932D501024188C1F72FF882D9B
:102D1000182DB11011173A20C7FD5A2E9D2C1211F3
:102D2000FE15E7201DFC282F212C7311EA14932196
:102D300073FAF22FA42BD311D5133D22CAF8B83061
:102D4000282B3412BF12E72221F77931AA2A9412D4
:102D5000A8118E2379F536322D2AF41291103524DC
:102D6000D2F3EF32AF295413790FDA242CF2A333C4
:102D70003129B413610E7E2587F05334B228131421
:102D8000480D2026E3EEFF34332873142E0CC126A1
:102D900041EDA535B327D214140B6027A1EB4836BB
:102DA00033273115FA09FE2702EAE536B3269015D6
:102DB000DF089A2865E87E373226EE15C4073529E4
:102DC000CBE61238B1254C16A906CE2932E5A1383A
:102DD0002F25AB168D05652A9CE32B39AE240917E8
:102DE0007104FB2A08E2B0392B24661755038F2B98
:102DF00077E0303AA923C4173902212CE9DEAB3A37
:102E0000262321181C01B22C5DDD213BA3227E1854
:102E10000000412DD5DB923B1F22DB18E4FECF2DB5
:102E20004FDAFD3B9C213719C7FD5A2ECDD8643CA3
:102E300017219319ABFCE42E4ED7C53C9320EF1914
:102E40008FFB6C2FD3D5213D0E204B1A73FAF22F36
:102E50005CD4783D891FA71A57F97630E8D2C93D6E
:102E6000041F021B3CF8F93078D1153E7E1E5D1B15
:102E700021F779310CD05C3EF81DB81B06F6F8310D
:102E8000A5CE9D3E721D121CECF4743241CDD83E8D
:102E9000EB1C6C1CD2F3EF32E2CB0F3F641CC61C60
:102EA000B8F2683388CA403FDD1B201D9FF1DF3335
:102EB00032C96B3F561B791D87F05334E1C7913FF0
:102EC000CE1AD31D6FEFC63495C6B13F461A2B1EDE
:102ED00058EE37354EC5CC3FBE19841E41EDA535A1
:102EE0000CC4E13F3519DC1E2BEC1236CFC2F13F8A
:102EF000AD18341F16EB7D3697C1FB3F24188C1F8D
:102F000002EAE53665C000409B17E31FEFE84B3748
:102F100038BFFF3F11173A20DCE7B03711BEF83F4A
:102F200088169120CBE61238F0BCEC3FFE15E72066
:102F3000BAE57138D4BBDB3F74153D21AAE4CF3824
:102F4000BFBAC43FEA1493219CE32B39AFB9A73F22
:102F50005F14E8218EE28439A6B8853FD5133D225F
:102F600082E1DB39A2B75D3F4A13922277E0303A23
:102F7000A5B6303FBF12E7226DDF823AAFB5FD3E06
:102F800034123B2364DED33ABEB4C53EA8118E236F
:102F90005DDD213BD5B3883E1D11E22357DC6D3B3F
:102FA000F2B2453E9110352452DBB63B15B2FC3DE2
:102FB000051088244FDAFD3B40B1AF3D790FDA248C
:102FC0004DD9423C71B05B3DED0E2C254DD8853C72
:102FD000A9AF033D610E7E254ED7C53CE8AEA53CAA
:102FE000D40DCF2551D6033D2EAE423C480D2026B0
:102FF00056D53F3D7BADDA3BBB0C71265CD4783DAA
:10300000D0AC6D3B2E0CC12663D3AF3D2BACFA3A4E
:10301000A10B11276DD2E33D8EAB823A140B6027D2
:1030200078D1153EF8AA063A870AAF2785D0453EE3
:103030006AAA8439FA09FE2794CF723EE3A9FD38C3
:103040006D094C28A5CE9D3E63A97138DF089A28EA
:10305000B7CDC53EEBA8E1375208E728CCCCEB3E14
:103060007BA84B37C4073529E2CB0F3F12A8B136F6
:1030700036078129FBCA303FB1A71236A906CE29EF
:1030800015CA4F3F57A76E351B061A2A32C96B3F28
:1030900005A7C6348D05652A51C8853FBBA61934DE
:1030A000FF04B02A72C79C3F78A668337104FB2ADC
:1030B00095C6B13F3EA6B232E303452BBAC5C43F25
:1030C0000BA6F83155038F2BE2C4D43FE0A539316C
:1030D000C702D82B0CC4E13FBCA576303902212CA5
:1030E00038C3EC3FA1A5AF2FAA016A2C66C2F53FF9
:1030F0008DA5E42E1C01B22C97C1FB3F81A5152E96
:103100008E00FA2CCAC0FF3F7EA5412D0000412D44
:1031100000C0004081A56A2C72FF882D38BFFF3F98
:103120008DA58F2BE4FECF2D73BEFB3FA1A5B02A4A
:1031300056FE152EB0BDF53FBCA5CE29C7FD5A2EB3
:10314000F0BCEC3FE0A5E72839FD9F2E32BCE13F03
:103150000BA6FE27ABFCE42E77BBD43F3EA611277F
:103160001DFC282FBFBAC43F78A620268FFB6C2FEA
:1031700009BAB13FBBA62C2501FBAF2F56B99C3F26
:1031800005A7352473FAF22FA6B8853F57A73B232E
:10319000E5F93430F8B76B3FB1A73D2257F97630E7
:1031A0004DB74F3F12A83D21CAF8B830A5B6303F01
:1031B0007BA83A203CF8F93000B60F3FEBA8341F4B
:1031C000AEF739315EB5EB3E63A92B1E21F779319D
:1031D000BEB4C53EE3A9201D93F6B93122B49D3E8D
:1031E0006AAA121C06F6F83188B3723EF8AA021BCE
:1031F00079F53632F2B2453E8EABEF19ECF474320B
:103200005EB2153E2BACDB185FF4B232CDB1E33DBC
:10321000D0ACC417D2F3EF3240B1AF3D7BADAB16AB
:1032200045F32C33B5B0783D2EAE9015B8F2683327
:103230002DB03F3DE8AE73142CF2A333A9AF033D8C
:10324000A9AF54139FF1DF3328AFC53C71B03412DE
:1032500013F11934A9AE853C40B1121187F05334F3
:103260002EAE423C15B2EE0FFBEF8D34B6ADFD3BFA
:10327000F2B2CA0E6FEFC63441ADB63BD5B3A40D62
:10328000E3EEFF34D0AC6D3BBEB47C0C58EE37356A
:1032900061AC213BAFB5540BCCED6E35F6ABD33AF8
:1032A000A5B62B0A41EDA5358EAB823AA2B701092E
:1032B000B6ECDC3529AB303AA6B8D6072BEC123683
:1032C000C8AADB39AFB9AA06A1EB48366AAA843985
:1032D000BFBA7E0516EB7D360FAA2B39D4BB51043D
:1032E0008CEAB136B7A9CF38F0BC240302EAE53640
:1032F00063A9713811BEF70178E9183712A912389D
:1033000038BFC900EFE84B37C5A8B03765C09BFF91
:1033100065E87E377BA84B3797C16EFEDCE7B03798
:1033200034A8E536CFC240FD53E7E137F1A77D363B
:103330000CC413FCCBE61238B1A712364EC5E6FA20
:1033400042E6423874A7A53595C6BAF9BAE5713890
:103350003BA73735E1C78EF832E5A13805A7C6345B
:1033600032C963F7AAE4CF38D3A6533488CA39F6F2
:1033700023E4FD38A4A6DF33E2CB0FF59CE32B3921
:1033800078A6683341CDE6F315E3583950A6EF32FD
:10339000A5CEBFF28EE284392CA674320CD098F1FF
:1033A00008E2B0390BA6F83178D173F082E1DB394D
:1033B000EDA57931E8D24FEFFCE0063AD3A5F9301C
:1033C0005CD42DEE77E0303ABCA57630D3D50CED49
:1033D000F2DF593AA9A5F22F4ED7EDEB6DDF823A15
:1033E00099A56C2FCDD8CFEAE9DEAB3A8DA5E42EB6
:1033F0004FDAB4E964DED33A85A55A2ED5DB9AE8D4
:10340000E1DDFA3A7FA5CF2D5DDD82E75DDD213B71
:103410007EA5412DE9DE6DE6DADC473B7FA5B22CC7
:1034200077E059E557DC6D3B85A5212C08E248E49F
:10343000D5DB923B8DA58F2B9CE33AE352DBB63B69
:1034400099A5FB2A32E52DE2D1DADA3BA9A5652A56
:10345000CBE624E14FDAFD3BBCA5CE2965E81DE0B3
:10346000CED9203CD3A5352902EA19DF4DD9423CFB
:10347000EDA59A28A1EB18DECDD8643C0BA6FE275B
:1034800041ED19DD4DD8853C2CA66027E3EE1EDC0E
:10349000CDD7A53C50A6C12687F026DB4ED7C53C2C
:1034A00078A620262CF231DACFD6E43CA4A67E25DD
:1034B000D2F33FD951D6033DD3A6DA2479F551D8BA
:1034C000D3D5213D05A7352421F766D756D53F3DF5
:1034D0003BA78E23CAF87FD6D8D45B3D74A7E722DA
:1034E00073FA9BD55CD4783DB1A73D221DFCBBD4BB
:1034F000DFD3933DF1A79321C7FDDFD363D3AF3D66
:1035000034A8E72072FF06D3E8D2C93D7BA83A2051
:103510001C0131D26DD2E33DC5A88C1FC70261D119
:10352000F2D1FC3D12A9DC1E710494D078D1153E75
:1035300063A92B1E1B06CCCFFED02D3EB7A9791D4B
:10354000C40707CF85D0453E0FAAC61C6D0947CEDC
:103550000CD05C3E6AAA121C140B8CCD94CF723E28
:10356000C8AA5D1BBB0CD4CC1CCF883E29ABA71AC4
:10357000610E21CCA5CE9D3E8EABEF19051073CB0D
:103580002ECEB13EF6AB3719A811C9CAB7CDC53E8C
:1035900061AC7E184A1324CA41CDD83ED0ACC417C2
:1035A000EA1483C9CCCCEB3E41AD09178816E8C8B4
:1035B00057CCFD3EB6AD4C16241850C8E2CB0F3F99
:1035C0002EAE9015BE19BEC76ECB203FA9AED21449
:1035D000561B31C7FBCA303F28AF1314EB1CA8C6DB
:1035E00088CA403FA9AF54137E1E25C615CA4F3F57
:1035F0002DB094120E20A7C5A3C95D3FB5B0D3115D
:103600009C212DC532C96B3F40B112112623B9C48C
:10361000C1C8783FCDB15010AE244AC451C8853FCF
:103620005EB28D0F3226E0C3E1C7913FF2B2CA0EFF
:10363000B3277BC372C79C3F88B3060E31291CC3D6
:1036400003C7A73F22B4410DAA2AC1C295C6B13F04
:10365000BEB47C0C212C6DC227C6BB3F5EB5B70B38
:10366000932D1DC2BAC5C43F00B6F10A022FD3C1C3
:103670004EC5CC3FA5B62B0A6C308EC1E2C4D43FF8
:103680004DB76409D2314FC176C4DB3FF8B79D080E
:10369000343315C10CC4E13FA6B8D6079234E0C05C
:1036A000A1C3E73F56B90E07EB35B1C038C3EC3FB5
:1036B00009BA46063F3788C0CFC2F13FBFBA7E0580
:1036C0008E3864C066C2F53F77BBB504D93945C0B2
:1036D000FEC1F83F32BCED031E3B2CC097C1FB3F3F
:1036E000F0BC24035F3C19C030C1FD3FB0BD5B029C
:1036F0009A3D0BC0CAC0FF3F73BE9201D03E03C0CB
:1037000065C0004038BFC900704700000FB41CB549
:10371000074B06AA7B4469460090059800F0E7F83D
:103720000020694600F0F6F81CBC5DF814FB0000B0
:10373000FD0100002DE9F0410E4604460020206204
:103740002046E168884730B3252805D0D4E9012117
:103750009047206A401CF2E7E1682046002788472E
:10376000050018D0A5F14100192802D820354FF4E2
:1037700000673246294620462760FCF737FD40B1F6
:10378000012804D0F61D26F007060836D8E7361DB6
:10379000D6E72846DAE7206ABDE8F0812DE9F04156
:1037A0000646002410687529314616A510D0AFF3DF
:1037B0000080002802DA404213A507E031688A073A
:1037C00001D512A502E0490704D511A5012401E0A5
:1037D000AFF3008000210A2206F1240709E0B0FBC4
:1037E000F2FCB0FBF2F302FB1C00303078541846B8
:1037F000491C0028F3D123462A463046BDE8F04153
:1038000000F017B8000000002D0000002B000000A1
:1038100020000000704770477047704710B500F0F7
:103820007FF8006810BD10B5044600F079F8046018
:1038300010BD2DE9F0470D4699469246044600F129
:1038400024080168880604D5E06921F01001216090
:1038500000E00120A84201DD471B00E00027A1692C
:103860007A1902EB0900081AA0612078C00602D478
:103870002046AFF30080002608E0D4E901211AF8C1
:1038800006009047206A401C761C20624E45F4DBFF
:103890002078C0060AD52046AFF3008006E0D4E9C0
:1038A000012130209047206A401C2062381EA7F179
:1038B0000107F4DC07E0D4E9012118F8050090477E
:1038C000206A401C2062281EA5F10105F3DC204679
:1038D000AFF300802078000602D50220BDE8F08713
:1038E0000120FBE701694A1C02610878704700B5B6
:1038F0008FB0CDE901310021059105497944CDE929
:10390000031011466846FFF715FF0FB000BD000019
:10391000E5FFFFFF0A6802F8010B0A60704700002C
:103920000048704720720020004870472072002035
:103930007546FFF7F9FFAE4605006946534620F08D
:103940000700854618B020B5FDF7C2FDBDE8204050
:103950004FF000064FF000074FF000084FF0000B4B
:1039600021F00701AC46ACE8C009ACE8C009ACE8FE
:10397000C009ACE8C0098D46704710B50446AFF3E6
:1039800000802046BDE81040FCF742BC2DE9F04124
:1039900006460F4600F016FA041E0D4618BF012019
:1039A000284320F00040C0F17F6000F1E040C00FEC
:1039B0000ED0301C18BF0120384320F00040C0F169
:1039C0007F6000F1E040C00F04BF0120FFF72BFF34
:1039D00020462946BDE8F08121F00042A2F1605264
:1039E000B2F5801F01F0004328BFD2F17F6C0BD9E4
:1039F0005FEA001C43EAC20242EB507018BF7047F6
:103A000028BF20F001007047B2F5801FBCBF1846E8
:103A100070474FEA410C1CF5001F02D2084600F027
:103A200036BD70B500F079F900000089FFF7F6BFE8
:103A30004FF00040A0F58000704700002DE9C04124
:103A400030B4DFF8A0C23CEA111418BF3CEA1314EA
:103A500000F0EC8081EA03051CEA111444EAD574F5
:103A600018BF1CEA131500F0C780A4EB05044FF043
:103A7000004545EAC12145EAC32341EA505143EAE2
:103A8000525304F17F74994204F500344FEAC02088
:103A90004FEAC22208BF904200F09C804FEA1365B3
:103AA0000FF24016765D4FEA134506FB05F7C7F1A6
:103AB000807706FB07F74FEAD737A7FB0368764204
:103AC000C8F58038A7FB06CE38BFA8F1010807FB70
:103AD00008E64FF0000EA6FB028CE6FB03CEDCF1FD
:103AE000000CCEF1004E38BFAEF1010EA6FB0C5813
:103AF0004FF000074FF00005E6FB0E87A1FB08C65C
:103B0000A0FB07CE16EB0E0645F10005E1FB0765AD
:103B100015F1E04E7EBFA4F580345FEA46066D41A4
:103B200016F1800745F100054FEA17274FEA0666B0
:103B300047EA0567A6F1DE46B6F1805F4FEA152534
:103B40001FD9384624F0010C05EBC471BCF1FE6F9F
:103B500001EB0C1102D8F0BCBDE8008124425CBF2F
:103B600001F5801E9EEAC47F02D4F0BCBDE800814E
:103B7000244238D4F0BCA1F1C041BDE8004100F0BE
:103B80001AB94FEAD22242EA43524FEAD323A7FBA3
:103B900002864FEAD02040EA415007FB03661EEA46
:103BA0000E0F4FEAD12105FB026658BFA6EB005667
:103BB000B6EB00564FEA520E4EEAC37E18EB0E0EDD
:103BC00056EB530EBDD518EB02085E417F1C55F134
:103BD0000005B6E74FF480154FF000074FF00006E0
:103BE0004FF00008ADE7F0BC4FF0000001F1C0411C
:103BF00001F00041BDE8008111EA0C1F0CEA131529
:103C000000D00CE013EA0C1F00F025804FF00000FC
:103C1000F0BC81EA030101F00041BDE80081F0BC85
:103C2000BDE8004181EA030100F0C5B8F0BCBDE881
:103C3000004170B500F071F8097EFC3E00F007B855
:103C400081EA03014FF0000001F00041704781EA72
:103C5000030100F0B0B8F0BCBDE800414FF0000037
:103C600021497047FFFDFBF9F7F5F4F2F0EEEDEBBB
:103C7000E9E8E6E4E3E1E0DEDDDBDAD8D7D5D4D36A
:103C8000D1D0CFCDCCCBCAC8C7C6C5C4C2C1C0BFB6
:103C9000BEBDBCBBBAB9B8B7B6B5B4B3B2B1B0AFBC
:103CA000AEADACABAAA9A8A8A7A6A5A4A3A3A2A1A0
:103CB000A09F9F9E9D9C9C9B9A999998979796955B
:103CC00095949393929191908F8F8E8E8D8C8C8BF7
:103CD0008B8A89898888878786858584848383827F
:103CE000828181800000FF070000F87F10F0004211
:103CF00048BF4042B0FA80F310FA03F10AD0C3F192
:103D00001D0303F580634FEA415002EB035202EBBF
:103D1000D12170474FF0000070470EF1020E2EF0D7
:103D2000030E5EF8046B364205D4012A43EB03050B
:103D300015F5001F12D8012841EB010C1CF5001FDE
:103D40000CD80ED14FEAD17C15F5001F0CEB4C0CB2
:103D50000CF1020C08BF4CEBD37C04E04FF0080CD4
:103D600001E04FEAD37C0CEB4C0526FA05F606F091
:103D70000706B6F1040C06D20EEB860CBDE87040C7
:103D80004CF0010C6047DFE80CF0090B02024FF029
:103D900000414FF00000A1F5002170BD194610460A
:103DA000012851EB010418BFD4F5001484BF002092
:103DB00001F0004170BD0808A0F500114FEA310183
:103DC000704700002DE9F04101F5801CBCF5001F93
:103DD000C0F2C3804FEA115C21EA0C510CF1FD0CDA
:103DE00041F480115FEA5C0C0CF5C07C01D340000B
:103DF00049413DA4890241EA905187028E0E0A0C86
:103E0000A45D04FB04F602FB06F6C6F14046A4FBE3
:103E10000662F60D46EA422606FB06F4A4FB0123E1
:103E20005242C3F1404338BF5B1EA6FB024200244E
:103E3000E6FB0324D20B42EA4446A6FB0623A1FB81
:103E400002E2A3FB07E4A4184FF0000252F10002C3
:103E5000E3FB01426442C2F1404E38BFAEF1010EB5
:103E6000A6FB04234FF00002E6FB0E32A2FB034642
:103E70004FF00004B61954F10004E2FB0264A1FB08
:103E800006E6A4FB07E816EB08064FF0000858F119
:103E90000008E4FB01687642C8F1405838BFA8F139
:103EA0000108A2FB06E4A3FB08E52D194FF000046E
:103EB00054F10004E2FB0854A1FB05E6A7FB04E86B
:103EC00018EB06084FF0000656F10006E1FB0486E9
:103ED00018F1200556F10006A809A8F11B08B10940
:103EE00008F03F08B8F10A0F40EA86601CD901EBE0
:103EF0000C51BDE8F08100BFFCF5EEE8E2DDD8D35F
:103F0000CFCBC7C3C0BDB9B6B4B1AEACA9A7A5A34A
:103F1000A19F9D9B9A9896959392908F8D8C8B895B
:103F20008887868584838281A0FB006800FB01F27C
:103F300008EB4208B8EB872807D5341858EB010482
:103F4000D5D5401C51F10001D1E7341A78EB0104BA
:103F5000CDD4401E71F10001C9E75FEA4C0C5FEA65
:103F60009C5C0DD105D34FF0000001F00041BDE88D
:103F7000F081BDE8F04170B5FFF7CFFE6DDBFFBE0D
:103F8000BDE8F0414FF00000004970470000F87FA5
:103F900043004FEAD30C4FEA3C0C43401FBF40079D
:103FA0000CF1605113F0FE4F70471CF0006F03D10D
:103FB00000200CF0004170470CF0004343EA5070C1
:103FC00010B540EACC0000F01CFA00BF00000092DF
:103FD0004FEA0001FFF7EFBE4FF000414FF0000045
:103FE000A1F500217047000090EA010F48BF81F061
:103FF000004100F15882421A3CBF801A89184FEAEA
:10400000D0524FF07F4C1CEA410FA2EBD15318BFA6
:104010009CEA026F00F03B804FF0004C4CEA00201D
:104020004CEA012121FA03FC10EB0C0C1ED202F128
:10403000FF325FEA1C2040EBC25038BF70471CF0D3
:104040007F0F4FEA400C18BFBCF17F4F38BF70475D
:10405000C3F12003994008BF20F00100BCF17F4F5D
:1040600038BF7047A0F1C04000F011BA4FEA3C00E1
:10407000000A40EBC25028BF1CF0FF0F4FEA400C73
:10408000E6D018BFBCF17F4F38BF7047EAE79CEA23
:10409000026F05D010EA5C0F08BF00F000407047C7
:1040A00010B500F0AEF900BF64FBBE3E4FF47F0CCC
:1040B0001CEAD0121EBF1CEAD11392EA0C0F93EA3D
:1040C0000C0F00F0858090EA010F48BF42F4807227
:1040D00040F4000C41F400002CF07F4120F07F40C0
:1040E00000B58142A2EB03020FF2081CACEB504E6C
:1040F000C0F100009EF800E04FEA4E0E00FB0EFCFF
:1041000038BF49004FEA2C1C02F5FA020CFB0EF3F3
:104110004FEACE1E4FEA112C4FEAC1210EEB635E2F
:1041200042EB22420EFB0CFC4FEA1C5300FB031136
:104130004FEA112C4FEA01310EFB0CFC4FEADC4C2C
:1041400000FB0C11C14228BF09184CEB03335DF88A
:1041500004EB10EB410143EBC250B2F57C0F38BFCA
:10416000704729D512F0F00F1CBF00F1C04000F0DD
:1041700000407047008182838485868788898B8C84
:104180008D8E8F919293959697999A9C9D9FA0A2C0
:10419000A3A5A7A8AAACAEB0B2B3B5B7B9BCBEC010
:1041A000C2C5C7C9CCCED1D4D7D9DCDFE2E6E9ECB1
:1041B000F0F3F7FAFE0000004FEA400C0CF1807CAF
:1041C000BCF17E4F28BF7047B0F1C04000F05FB92E
:1041D00090EA010F0CEAD11348BF42F480726245A5
:1041E00038BF634507D213F47F0F16D080EA010071
:1041F00000F00040704710B500F003F9097EFC3E66
:1042000000F005B880EA010000F00040704780EA45
:10421000010000F0004000F03AB912F47F0F04BF33
:104220000248704780EA010000F031B90000C07F09
:1042300041000B0ED3F19E0208D950F400034FEA5F
:10424000032323FA02F048BF4042704710B500F044
:10425000D8F800BF49922480002070476FF00042D8
:1042600082EA200070470000C10DD1F19E0206DBFA
:104270004FEA002343F0004323FA02F07047004264
:1042800007D54FEA4001B1F1FE4F02D24FF00000D6
:10429000704710B500F0B5F84992248000207047AF
:1042A0006FEA20007047000010F0004148BF404214
:1042B000B0FA80F310FA03F2C3F19D030BD051EA78
:1042C000C35101EB1220530638BF704700F10100C3
:1042D00008BF20F001007047B0FA80F310FA03F233
:1042E000C3F19D030AD0D90501EB1220530638BF54
:1042F000704700F1010008BF20F001007047000086
:104300004FF47F0C1CEAD0121EBF1CEAD11392EAB4
:104310000C0F93EA0C0F00F0478090EA010F48BFA2
:1043200042F480724FF0004C4CEA00204CEA01212C
:1043300002EB0302A0FB0113A2F50002002918BF43
:1043400043F001035B0028BF4FEA330342EB2242F4
:104350005FEA132C4CEBC2502EBFBCEB436FB2F59F
:104360007C0F70474FEA036CBCF1004F08BF20F090
:104370000100B2F57C0F38BF70470BD582F0FF0209
:1043800012F5803FC8BF704700F1C040D8BF00F0B1
:104390000040704700F5000C5FEA4C0C48BF7047C6
:1043A000B0F1C04000F073B890EA010F0CEAD113ED
:1043B00048BF42F48072624538BF634504D280EA48
:1043C000010000F00040704710B500F01AF800BF7F
:1043D0008900013E00F007B800F009B85FEA410C1F
:1043E0005FEA1C6C08D080EA010000F050B85FEA78
:1043F000400C5FEA1C6CF6D14FF00040A0F5800045
:1044000070470EF1020E2EF0030E5EF8044B2442AC
:1044100004D44FEA4102B2F17F4F11D84FEA400372
:10442000B3F17F4F0CD80ED14FEAD07CB2F17F4F61
:104430000CEB4C0C0CF1020C08BF4CEBD17C04E0F3
:104440004FF0080C01E04FEAD17C0CEB4C0324FA4E
:1044500003F404F00704B4F1040C06D20EEB840C50
:10446000BDE810404CF0010C6047DFE80CF0070895
:1044700002024FF00040A0F5800010BD0846420047
:1044800018BFD2F1807288BF00F0004010BDFF213C
:1044900041EAD050C005704790EA010F48BF81F053
:1044A00000413FF5A8AD421A04D882F00042A0EBCB
:1044B000020011444FEAD0524FF07F4C1CEA410FEA
:1044C000A2EBD15318BF9CEA026F4AD04FF0004CC8
:1044D0004CEA00204CEA012121FA03FCB0EB0C0C61
:1044E0000FD412F0FE0F36D05FEA4C001DD500123B
:1044F00040EBC25038BF70471CF03F0F18BF7047E9
:104500000BE0A2F101025FEA1C2040EBC25038BF71
:1045100070471CF07F0F18BF7047C3F1200399400C
:1045200014BF401E20F00100704780084FEA12239C
:1045300008BF7047B0FA80FCA2EB0C02CCF1280C4B
:1045400060FA0CF093EA122F04BF00EBC2507047E0
:104550004FEAC3707047130A5FEADC1008BF704768
:10456000F6E79CEA026F04D010EA5C0F08BF002057
:10457000704710B5FFF745FF40DFF63E81F0004081
:104580007047000000000000000000000000000074
:1045900000000000000808080808080800001818B3
:1045A000000000486C241200000000000000000021
:1045B00000000000002424247F1212127F12121225
:1045C00000000000081C2A2A0A0C1828282A2A1C85
:1045D000080800000022251515152A5854545422A5
:1045E00000000000000C1212120A76252911916EAB
:1045F00000000006060403000000000000000000A8
:1046000000000040201010080808080808101020BA
:1046100040000002040808101010101010080804D0
:1046200002000000000008086B1C1C6B080800005A
:10463000000000000000080808087F0808080800BB
:10464000000000000000000000000000000006065E
:1046500004030000000000000000FE000000000055
:10466000000000000000000000000000000006063E
:1046700000000000804040202010100808040402C0
:1046800002000000001824424242424242422418E2
:104690000000000000080E08080808080808083E86
:1046A00000000000003C4242422020100804427EEC
:1046B00000000000003C4242201820404042221CE2
:1046C0000000000000203028242422227E202078B0
:1046D00000000000007E0202021A26404042221C16
:1046E0000000000000382402021A26424242241828
:1046F00000000000007E22221010080808080808A8
:1047000000000000003C4242422418244242423C45
:104710000000000000182442424264584040241C1B
:104720000000000000000000181800000000181829
:104730000000000000000000000800000000000869
:104740000804000000402010080402040810204063
:1047500000000000000000007F0000007F0000005B
:10476000000000000002040810204020100804028D
:1047700000000000003C4242464020101000181883
:1047800000000000001C225A555555552D42221C90
:1047900000000000000808181414243C224242E7DC
:1047A00000000000001F2222221E22424242221F3D
:1047B00000000000007C4242010101010142221C74
:1047C00000000000001F2242424242424242221F99
:1047D00000000000003F4212121E12120242423F2D
:1047E00000000000003F4212121E121202020207D5
:1047F00000000000003C2222010101712122221C44
:104800000000000000E7424242427E42424242E74C
:1048100000000000003E0808080808080808083ED4
:1048200000000000007C101010101010101010106C
:10483000110F0000007722120A0E0A1212222277AC
:104840000000000000070202020202020202427F90
:10485000000000000077363636362A2A2A2A2A6BCC
:104860000000000000E346464A4A52525262624744
:1048700000000000001C2241414141414141221CF5
:1048800000000000003F424242423E020202020794
:1048900000000000001C2241414141414D53321CA7
:1048A00060000000003F4242423E1212222242C7F4
:1048B00000000000007C4242020418204042423EB8
:1048C00000000000007F4908080808080808081CC4
:1048D0000000000000E74242424242424242423C63
:1048E0000000000000E742422224241414180808A3
:1048F00000000000006B49494949555536222222E3
:104900000000000000E7422424181818242442E77D
:104910000000000000772222141408080808081C70
:1049200000000000007E2120101008040442423FD5
:10493000000000780808080808080808080808089F
:10494000780000000202040408080810102020204B
:104950004040001E101010101010101010101010F9
:104960001E000038440000000000000000000000AD
:104970000000000000000000000000000000000037
:1049800000FF00060800000000000000000000001A
:104990000000000000000000003C4278444242FC5D
:1049A0000000000000030202021A26424242261AB8
:1049B00000000000000000000038440202024438F9
:1049C000000000000060404040784442424264D809
:1049D0000000000000000000003C427E0202423C59
:1049E0000000000000F08808087E08080808083E5B
:1049F0000000000000000000007C22221C023C425B
:104A0000423C000000030202023A4642424242E7B0
:104A100000000000000C0C00000E08080808083E0A
:104A2000000000000030300000382020202020202E
:104A3000221E0000000302020272120A16122277DE
:104A400000000000000E0808080808080808083ED2
:104A50000000000000000000007F9292929292B746
:104A60000000000000000000003B4642424242E7D6
:104A70000000000000000000003C42424242423C74
:104A80000000000000000000001B26424242221EDF
:104A900002070000000000000078444242424478CF
:104AA00040E000000000000000774C040404041FF4
:104AB0000000000000000000007C42023C40423E3A
:104AC0000000000000000008083E08080808083040
:104AD000000000000000000000634242424262DC2D
:104AE000000000000000000000E742242414080831
:104AF000000000000000000000EB4949555522224B
:104B00000000000000000000007624181818246E31
:104B1000000000000000000000E7422424141808F0
:104B20000807000000000000007E22100808447EF4
:104B3000000000C020202020201020202020202045
:104B4000C0001010101010101010101010101010C5
:104B500010100006080808080810080808080808C7
:104B600006000C32C200000000000000000000003F
:104B70000000FFFFFFFFFFFFFFFFFFFFFFFFFFFF43
:104B8000FFFFFFFFFFFFFFFFFFFFFFFFFFFFBEF77E
:104B90007DEFBAD6B6B5F39CB294B39CB29434A56B
:104BA000F7BDFBDE7DEFFFFFFFFFFFFFFFFFFFFF16
:104BB000FFFFFFFFFFFFFFFFFFFFFFFFFFFFFFFF05
:104BC000FFFFFFFFFFFFFFFFFFFFFFFFFFFFFFFFF5
:104BD000FFFFFFFFFFFFFFFFFFFFBEF7FBDEF39CC2
:104BE000CB5AC73904218210421042104108831861
:104BF0004529C7390C6375AD3CE7BEF7FFFFFFFFE2
:104C0000FFFFFFFFFFFFFFFFFFFFFFFFFFFFFFFFB4
:104C1000FFFFFFFFFFFFFFFFFFFFFFFFFFFFFFFFA4
:104C2000FFFFFFFFFFFFFFFF3CE7B2940842C318FE
:104C30008210042145298631863186318631452905
:104C4000042182104108C3180842F39C3CE7FFFF8F
:104C5000FFFFFFFFFFFFFFFFFFFFFFFFFFFFFFFF64
:104C6000FFFFFFFFFFFFFFFFFFFFFFFFFFFFFFFF54
:104C7000FFFFFFFFFFFFFBDE0C63C318C3184529CE
:104C8000C739084208420842084208420842C73968
:104C9000C73986318631042141088210CB5ABAD6F1
:104CA000FFFFFFFFFFFFFFFFFFFFFFFFFFFFFFFF14
:104CB000FFFFFFFFFFFFFFFFFFFFFFFFFFFFFFFF04
:104CC000FFFFFFFFFBDECB5A82104529C7390842A0
:104CD0000842094A494A494A494A494A494A08420E
:104CE000C739C739C7398631452983180000C841FB
:104CF00038C6FFFFFFFFFFFFFFFFFFFFFFFFFFFFC4
:104D0000FFFFFFFFFFFFFFFFFFFFFFFFFFFFFFFFB3
:104D1000FFFF7DEF8E7382104529C7390842094A8B
:104D20008A523084CF7B8A52494A4A52494ACB5AE6
:104D3000CF7B0C630842C73986314529C318000070
:104D4000494ABAD6FFFFFFFFFFFFFFFFFFFFFFFF4C
:104D5000FFFFFFFFFFFFFFFFFFFFFFFFFFFFFFFF63
:104D6000FFFFF39CC3180421C7390842494A494A46
:104D700072947DEF7DEFB2944A52494A8A5275ADE2
:104D8000BEF7BAD64D6BC739C73986314529C31826
:104D90004108CF7B7CE7FFFFFFFFFFFFFFFFFFFF27
:104DA000FFFFFFFFFFFFFFFFFFFFFFFFFFFFFFFF13
:104DB000BAD608428210C7390842494A494A8E7316
:104DC000FBDEFFFFBEF7BAD68E73084230843CE7A5
:104DD0007DEFFFFFB6B5494AC73986314529042121
:104DE00041084529B6B5FFFFFFFFFFFFFFFFFFFFAB
:104DF000FFFFFFFFFFFFFFFFFFFFFFFFFFFFBEF70C
:104E0000718C410845290842494A494A4A52B2949C
:104E1000BEF7BEF7B294CF7BCF7B494AB6B5F39CC1
:104E20000C6338C6BAD60C638739C7398631452931
:104E3000C318410830847DEFFFFFFFFFFFFFFFFF36
:104E4000FFFFFFFFFFFFFFFFFFFFFFFFFFFF3CE74D
:104E5000CB5A4108C7390842494A4A528A52F39C00
:104E6000FFFF7DEFC739C3180C63CB5AB6B5B294B8
:104E7000CB5A75ADFAD64D6B8739C739863145297E
:104E8000042141088A5279CEFFFFFFFFFFFFFFFF99
:104E9000FFFFFFFFFFFFFFFFFFFFFFFFFFFF38C622
:104EA00086310421C841494A494A4A52494AB18C8B
:104EB000BEF7BEF7B294CF7BCF7B494A74A57DEF96
:104EC0007CE7BEF779CE0C63C739C73986314529EF
:104ED00004218210452975ADBEF7FFFFFFFFFFFFDC
:104EE000FFFFFFFFFFFFFFFFFFFFFFFFFFFF34A5F7
:104EF000821086310842494A494A8A52494A4D6BD2
:104F0000BAD6FFFFFFFF79CE0D63C739CF7B7DEFA8
:104F1000FFFFFFFF75AD08428631C739863145294D
:104F20004529C318C318B2947DEFFFFFFFFFFFFFB1
:104F3000FFFFFFFFFFFFFFFFFFFFFFFFBEF7B28C8A
:104F40004108C7390842494A494A8A528A524A4A5C
:104F5000D07B7AC67BBE906BC9398831C939B3849E
:104F6000BBC6F8B5CC5A8631C739C7398631452911
:104F70004529C420410830843CE7FFFFFFFFFFFFC5
:104F8000FFFFFFFFFFFFFFFFFFFFFFFF3CE78A4A36
:104F9000C310C7390842494A494A4A4A4A42093A6B
:104FA000084A096B497BC67A05834683C57AC6726F
:104FB000097B485A873188218829863186314529DD
:104FC0004529042141084A4ABAD6FFFFFFFFFFFFE7
:104FD000FFFFFFFFFFFFFFFFFFFFFFFFF7C582504F
:104FE0000541C7290842494A4A42494A097B889BE8
:104FF000C6B321D4A0DCE1E461ED61ED21EDA0E4D4
:1050000020DC80CB43ABC482065A47214629452980
:105010000429041982108218F39C7DEFFFFFFFFF23
:10502000FFFFFFFFFFFFFFFFFFFF7DEF4D9300A09E
:1050300082B8C7310932494A867A43C36BEDF4F628
:10504000EBFD20FD20FD60FDA0FDA0FD60FD60FDED
:1050500020FDE0FCA0FC60F4C1DB839AC549452932
:105060000419C42082380050CB6ABAD6FFFFFFFF74
:10507000FFFFFFFFFFFFFFFFFFFFFBEE04A100C0EC
:1050800000F0C3A0C8414942059B20FCA4FC69FD77
:10509000E8FD63FD20FD60FD60FD60FD20FD20FD5D
:1050A000E0FCE0FCA0FC60FC20FC41D3C5494519B4
:1050B000C438826841880070495A79CEFFFFFFFFEB
:1050C000FFFFFFFFFFFFFFFFFFFFFBF682C000D0E7
:1050D00086C146F141C8457989528862866AC67A96
:1050E000C4BBE1FC60FD60FDA0FDA0FD60FD60FDB6
:1050F000E0FC60E403938472446AC5414529C358C7
:1051000041A8409800B000600C6B79CEFFFFFFFF14
:10511000FFFFFFFFFFFFFFFF7DEFCE83828800F8D8
:10512000C4D80CF38AFA82E882B04569C7510842B4
:10513000083A865A839BA2BC22CD21CDA1C422B4B9
:10514000C47A063A862945290531C450419000C0E9
:1051500000A800A000A800304A4ABAD6FFFFFFFF0F
:10516000FFFFFFFFFFFF7DEF8E73C318053982A895
:1051700000F8C3F84DFB4DFBC7F9C3F082D8C3B0AC
:10518000048145614651864986494641454145412C
:10519000454105490461829041B000D000C800A893
:1051A00000A800B8415882108210B294BEF7FFFFE9
:1051B000FFFFFFFFBEF7CF7B8210042186298641C7
:1051C000049940E841F886F9CBFA49FA82F800F8E8
:1051D00000F000E841D841D041C041C041C041C0C9
:1051E00041C800D000E000E000D800D000B800A81E
:1051F00041888248821082100000452979CEFFFF45
:10520000FFFFBEF7F39C8210C31845298631C731D2
:10521000307CF3DC86E100F000F841F841F800F85A
:1052200000F800F800F800F800F800F800F800F8BE
:1052300000F800E800E000E000D800C841A08A9A29
:105240000C63041182108210410800004D6B7DEF49
:10525000FFFFFBDE08424210452986318631494A6C
:1052600038BEFFFF38D686A900C800E000F000F87D
:1052700000F800F800F800F800F800F800F800F076
:1052800000F000E800E000D0C3988A8AB2A4BAC651
:10529000F7B5084241088210410800004529F7BDD2
:1052A000FFFF718C410804214529863186310C634A
:1052B0003CE7FFFF79D646B900E042C882A882B039
:1052C00041D882E882F041E841E841E841F041E814
:1052D00041D804C108924D8B34A5FBC6FBD6BACE8B
:1052E0003CE73084C3184108410800004108CF7BE7
:1052F0007DEF494A0000042145294631863130843A
:10530000FFFFFFF7F7DD09DA83F801F042C082986A
:10531000499AF3B4F3CC71BC8EBB8EBB30BC71BC6C
:10532000F3BCB6BDFBCEBEE77DE73BDFBAD679CE98
:10533000FBDE75AD86314108410800000000494A96
:10534000FBDE042141080421452945298739B2940F
:10535000FFFFBEF734DD0CEB09FA00F001D800D8EE
:105360008BD27DE7FFFFFFFFFFFFFFFFFFFFFFFF88
:10537000FFFFFFFFBEFF7DEFFBDEFBDEBAD679CE7F
:10538000BAD678C6C7390000410800000000C73906
:1053900079CE00008210C318042105298631B39C00
:1053A000FFFFFFF775DDC7E9C7F901F801F000E875
:1053B00049E2FBEEFFFFFFFFFFFFFFFFFFFFFFFFE5
:1053C000FFFFFFFFBEF77DEFFBDEFBDEBAD679CE37
:1053D000BAD6B9CE08420000000000000000C7396C
:1053E00038C600008210821004210421452930842F
:1053F000FFFFFFFF38DEC4D000F001F800F800F036
:1054000008D2FBE6FFFFFFFFFFFFFFFFFFFFFFFFED
:10541000FFFFFFFFBEF77DEFFBDEBAD679CE79CE78
:10542000BAD679CEC73941080000000000008631A5
:1054300038C600000000C318CB5A8631C318CB5AB7
:105440007DEFFFFF7DEFCFBBC3B041D041D082B82D
:105450004DB37DE7FFFFFFFFFFFFFFFFFFFFFFFFF4
:10546000FFFFBEF7BEF73DEFFBDEBAD679CE79CEB1
:10547000FAD6F7BD042186310421000000008631F0
:1054800038C68631C318CB5A75ADCF7B41088631FB
:10549000F7BDFFFFFFFFBEEF74B5309C309C72A4D8
:1054A000BBD6FFFFFFFFFFFFFFFFFFFFFFFFFFFF79
:1054B000FFFFBEF77DEF3CE7FBDEBAD679CE79CEB3
:1054C0003CE7718C81080C63CF7B821000008A520C
:1054D00038C675AD718CB6B53CE7FBDEC739000048
:1054E000CF73FFFFFFFFFFFFFFFFFFFFFFFFFFFF88
:1054F000FFFFFFFFFFFFFFFFFFFFFFFFFFFFFFFFBC
:10550000BEF77DEF7DEF3BDFFAD679CE79CEFBDEBD
:10551000B9CEC739C420718CBAD6718CCB5AB2942B
:10552000BAD6FFFF7DEF7DEFFFFFFFFFB6B546293F
:10553000051975A5FFFFFFFFFFFFFFFFFFFFFFFF3F
:10554000FFFFFFFFFFFFFFFFFFFFFFFFFFFFFFFF6B
:10555000BEF77DEF3CE7FBDEBAD679CEBAD6FCDEED
:105560004E6342080C63F7BDBEF7FFFFFBDEFBDEB8
:10557000BEF7FFFFFFFFFFFFFFFFFFFFFFFFF49CF2
:1055800004210521B6A5FFFFFFFFFFFFFFFFFFFF7F
:10559000FFFFFFFFFFFFFFFFFFFFFFFFBEF7BEF7AD
:1055A0007DEF3CE7FBDEBAD679CEFBDEBBD6D1730E
:1055B00083188639349DBDEFFFFFFFFFFFFFFFFF1C
:1055C000FFFFFFFFFFFFFFFFFFFFBEFF35D6EBCC66
:1055D00043B340510519F58CBEEFFFFFFFFFFFFFFE
:1055E000FFFFFFFFFFFFFFFFBEF7BEF77DEF7DEF81
:1055F0003CE7FBDEBADEBAD63CDF3ABE4F638249F7
:1056000040A323B4CC833ABEFFFFFFFFFFFFFFFFA1
:10561000FFFFFFFFFFFFFFFFBFF7B5BD829220F442
:10562000A0FC60E4408284418F6B77AD3DE7FFFFD3
:10563000FFFFFEFFBEF7BEF7BEF77DEF7DEF3CE755
:10564000FBDEFBDE3DE7BBCE369D0B6B416A60C4E3
:1056500020FE60F5008BC76A38C6BEF7FFFFFFFF6C
:10566000FFFFFFFFFFFFFFFF7DEF4B7B80B2A0FC42
:10567000A0FCE0FCE0FCC0CBC18A45624D6BB3945A
:10568000F7BD3DDFFFF7FFFFBEF77DEF7DEF7DE765
:105690003DDFBAC675A58D7B847A40B3E0ECE0FDB2
:1056A000E0FD60F520E5A0D40A6BFBDEFFFFFFFF05
:1056B000FFFFFFFFFFFFFFFF7DEFCC9340EB60FCA0
:1056C000A0FCE0FC20FD60FD20F5A0D4C0BB429B07
:1056D000458B6B9CAE9C718CB394339D34A5F2A426
:1056E000F0B4CA9B049B40BB20E420FDA0FDA0FDBC
:1056F000E0FDE0FDE0FD20C4885A38BEFFFFFFFF5B
:10570000FFFFFFFFFFFFFFFFFFFF78D646AB40DB49
:1057100020F460FCA0FCE0FC60FDA0FD60FD20F535
:10572000A0DCC0B3C05186290D638F7B0D5BC741E0
:10573000018200C3C0E360FCA0FCE0FCE0FC60F57B
:1057400060F520E5809B8662308479CEFFFFFFFF05
:10575000FFFFFFFFFFFFFFFFFFFFFFFF38C62D9C8E
:10576000059343A382B3C2BBC2BB22B482A34293BC
:10577000C37A85620B637184B6B579CE79C6B5AD4F
:1057800070944A8B06830493049B439B439B4393EF
:10579000048308738D73B39479CE7DEFFFFFFFFF11
:1057A000FFFFFFFFFFFFFFFFFFFFFFFFFFFF3CDFEC
:1057B00038BE75B533A533A5F39CF39CF39CF394E5
:1057C000F39C35A5F8BDFBDEBEF7FFFFFFFFFFFF33
:1057D0007EEFBBD6F8BDB6AD75AD34A5339D349D17
:1057E00035A5B7AD79C63CE7BEF7FFFFFFFFFFFF6A
:1057F000FFFF000014580008000000209013000074
:105800006C010008F065000890130020F0640000AF
:10581000D00100086005004000000420115DDD217A
:105820003BA3227E180000412D7EA5412D082009B2
:1058300000C000405DDD82E71C311491302011AAC8
:105840002A94126B39460649327C0CA8118E230823
:105850002140200521F779311C2114A154601195B4
:10586000C6B13F461A2B1E58EE3735BEB4C53E2092
:10587000A00D63A97138DF089A28B7CDC53E7820FE
:105880000563A92B1E4C212C2005BEB47C0C38A02E
:105890001161AC213B95C6BAF9BAE571383BA7371F
:1058A000359C201121F766D756D53F3D3BA78E2367
:1058B000A811C9CA50200961AC7E18AA2AC1C27CAD
:1058C0002144A1F020111E3BB504693E9201C83C61
:1058D0002403EB3564090821D020056C30060E1C2A
:1058E0002114A1E46011AE240917AF37D607882E22
:1058F0008D0F7E1E5D1B20A40D24188C1F1E34F1FD
:105900000AB3269015082005140B60274C212C2083
:10591000057104FB2A382500A40DC7FD5A2E9D2CC5
:105920001211FE15E7202C201187F05334B22813F2
:1059300014480D202602EAE53650251820059CE380
:105940002B397C2144A5A420114ED7C53C9320EFD0
:10595000198FFB6C2F78D1153E682530A40DE2CB52
:105960000F3F641CC61CB8F2683374200597C1FB56
:105970003FAC215C2005F0BCEC3F802548A40DA67F
:10598000B8853FD5133D2282E1DB3998201140B123
:10599000AF3D790FDA244DD9423C2EAE423C9825DA
:1059A0006020058EAB823ADC2174A5BC2011B1A722
:1059B0001236A906CE2915CA4F3F78A66833F425BA
:1059C00078A40DBCA576303902212C38C3EC3FE019
:1059D0002405BCA5CE290C218C200578A62026C83C
:1059E000A81109BAB13FB1A73D2257F976304DB79A
:1059F0004F3F0420118EABEF19ECF474325EB215F8
:105A00003E2EAE9015E024092DB03F3D40B112115D
:105A10003C21A4A9282411A6B8D6072BEC1236C81D
:105A2000AADB39F0BC240354296CA80D97C16EFE83
:105A3000DCE7B03734A8E5364C153826F56C21BCC8
:105A4000240578D173F010A811EDA579314ED7ED6A
:105A5000EB6DDF823A99A56C2F7024119CE33AE339
:105A600052DBB63B99A5FB2A02EA19DF282409ED8F
:105A7000A59A2887F026DB9C21D4A9944411C7FD60
:105A8000DFD363D3AF3D34A8E720710494D040A89E
:105A90000F2B1E140B8CCD94CF723EC8AA5D1BB881
:105AA0002405241850C8CC21EC24057E1E25C65898
:105AB000A8112DB09412AE244AC451C8853F5EB2DD
:105AC0008D0FDC24116C308EC1E2C4D43F4DB7641D
:105AD00009EB35B1C070240909BA46061E3B2CC03B
