:020000040800F2
:10000000C86200205D140008B1060008B3060008AD
:10001000B5060008B7060008B90600080000000091
:10002000000000000000000000000000BB06000807
:10003000BD06000800000000BF060008C106000859
:100040007714000877140008771400087714000864
:100050007714000877140008D10500085706000837
:100060008B0500085F050008771400087714000866
:100070007714000877140008771400087714000834
:100080007714000877140008771400087714000824
:100090007714000877140008771400087714000814
:1000A0007714000877140008771400087714000804
:1000B00077140008771400087714000877140008F4
:1000C00077140008771400087714000877140008E4
:1000D00077140008F5130008771400087714000857
:1000E00077140008771400087714000877140008C4
:1000F00077140008771400087714000877140008B4
:1001000077140008771400087714000877140008A3
:100110007714000877140008771400087714000893
:100120007714000877140008771400087714000883
:1001300000F002F800F05AF80AA090E8000C82449F
:100140008344AAF10107DA4501D100F04FF8AFF27C
:10015000090EBAE80F0013F0010F18BFFB1A43F0A5
:100160000103184728B6000048B600000A444FF0C3
:10017000000C10F8013B13F0070408BF10F8014B06
:100180001D1108BF10F8015B641E05D010F8016B4B
:10019000641E01F8016BF9D113F0080F1EBF10F8AF
:1001A000014BAD1C0C1B09D16D1E58BF01F801CBD2
:1001B000FAD505E014F8016B01F8016B6D1EF9D555
:1001C0009142D6D37047000000230024002500266A
:1001D000103A28BF78C1FBD8520728BF30C148BFAA
:1001E0000B6070471FB51FBD10B510BD03F0E6F8DA
:1001F0001146FFF7F7FF00F069F903F004F903B4C3
:10020000FFF7F2FF03BC01F09FF800002DE9FE4F5D
:100210000025FF48FF4F0124A9464FF6FF7B4626E5
:1002200007F5405A8046456007EB0410D0E90012FC
:100230001144D0E902231A441144D0E904231A449A
:10024000D0E9063018441044C21700EB5270A6EBF8
:10025000E003C81701EB5070A6EBE00104F11002B7
:10026000501ECDF800B0CDE9010200F0F5FC98F881
:100270000200F8B90AEB0410D0E900121144D0E9E9
:1002800002231A441144D0E904231A44D0E9063069
:1002900018441044C21700EB5270A6EBE003C817D5
:1002A00001EB5070A6EBE001CDF80090DDE9010212
:1002B00000F0D2FC641CA4B27F2CB5D30121D8F885
:1002C0000400444653464E0253F8212047F82120AB
:1002D000AA4201DD15460846491C89B2B142F3D352
:1002E00003F02EFDCC4903F057FDCC4903F02AFC66
:1002F00003F0EAFC6060142D01DAC4F80490BDE854
:10030000FE8F2DE9FC5FC64EC64D0024DFF800A32A
:100310004FF6FF79771005F5005800BF05EB840014
:1003200004F11002406890FBF6F355F82400CDE983
:10033000009290FBF7F1501E83462839283B00F0CD
:100340008BFC9AF8020080B908EB840158F824006D
:100350004968019A91FBF6F390FBF7F100200090B9
:1003600058462839283B00F077FC641CA4B27F2C47
:10037000D4D300204FEA080151F8202045F820206E
:10038000401C80B28028F7D3BDE8FC9FF0B5012166
:10039000A54A00EBD07300250BE000BF441A52F8C9
:1003A000216052F824703E4442F8216042F8245003
:1003B000491CB1EB630FF1D3F0BD2DE9F0478A463C
:1003C000814600243DE0994850F8241008B20D14ED
:1003D00003F0B6FC062103F052FE6FF00E06314624
:1003E00003F04DFE0746284603F0AAFC062103F061
:1003F00046FE314603F043FE0646484603F0BCF98C
:10040000884605463146084603F0C6FC064639468E
:10041000084603F0C1FC314603F02CFB03F0FEFA62
:1004200002F0FAFF2A46434603F04EF803F01AF8AA
:10043000102103F024FE03F063FC7B4941F8240003
:10044000641C4C45BFD37AA18A4503D14846BDE818
:10045000F0479BE7BDE8F0872DE9F047894606465F
:1004600000246FF00B08744F14E000BF00F04EFE44
:1004700003F07EFC414603F002FE0546484603F0C9
:100480005FFC294603F088FC03F01EFC000447F8DB
:100490002400641CB442E9D3DCE770B505464FF490
:1004A000806447F6FF712046FFF7D6FF2246624977
:1004B0005E4801F07BFE61A12046FFF77EFF15B18B
:1004C000BDE870401DE7BDE870409FE600F0F0FE1B
:1004D00000F00AFA00F0C0FD4FF6FF74204600F06D
:1004E00026FB5848046000F0B7FD00F075FE484C4C
:1004F0000025A07830B3207838BB607830B101286F
:100500000BD0022810D003281BD114E032216C2319
:100510006D22084600F055FD13E032216C236D2258
:10052000084600F039FD0CE032216C236D220846AC
:1005300000F05BFD05E032216C236D22084600F0DF
:1005400068FDA57020780028D3D0607828B10128F4
:10055000CFD10020FFF7A1FFCBE70120FAE710B5CC
:10056000082001F00DFE00280ED0642000F0CEFE21
:10057000354C0821204601F09AF80028F9D0BDE852
:100580001040082001F00ABE10BD10B5042001F093
:10059000F7FD00281BD0642000F0B8FE2A4C04218F
:1005A000204601F084F80028F9D01948017821B9D3
:1005B000012181704178491C41704178032901D99A
:1005C00000214170BDE81040042001F0E7BD10BDDE
:1005D00010B5012001F0D4FD00283BD0642000F0CC
:1005E00095FE194C0121204601F061F80028F9D050
:1005F0000748017821B94178491E41700121817075
:100600004178642901D90321417001201EE00000D6
:10061000000000209C13002000409C460000F9438D
:10062000002D31019C0300209C4300209C330020BE
:1006300031534944454400009C230020325349442F
:10064000454400001C00002000100140BDE810409F
:1006500001F0A4BD10BD70B5022001F091FD00288D
:1006600021D0642000F052FE0F4C0221204601F000
:100670001EF80028F9D04FF6FF75284600F057FA0B
:100680000A4C2078401CC1B22170012906D90020F3
:100690002070284600F04BFA0120A070BDE87040A1
:1006A000022001F07BBD70BD001001400000002061
:1006B0007047FEE7FEE7FEE7FEE7704770477047CA
:1006C000704700000CB500214B4801910091026871
:1006D00042F4803202604FF4A063026802F40032F8
:1006E0000092019A521C0192009A12B9019A9A4200
:1006F000F3D10268920333D5012100913F490A6882
:1007000042F010020A600A6822F003020A600A68D6
:1007100042F002020A6041684160416841604168FC
:1007200041F480614160416821F47C11416041687D
:1007300041F4E8114160016841F080710160016895
:100740008901FCD5416821F003014160416841F015
:10075000020141604168C1F381010229FAD10CBD57
:1007600000910CBD244810B5016841F00101016001
:100770004168234A114041600168224A11400160EA
:10078000016821F480210160416821F4FE0141608B
:100790004FF41F018160FFF795FF1B494FF0006088
:1007A000086010BD144910B54868184A10F00C03D1
:1007B000174803D0042B01D0082B0AD002604968E7
:1007C000134AC1F30311121D515C0268CA40026052
:1007D00010BD4A684B6802F470124FF0020413F423
:1007E000803F04EB924202D04B689B0301D5094B3A
:1007F00000E0064B5A43E1E70010024000200240AF
:100800000000FFF8FFFFF6FE08ED00E000127A009E
:100810000800002000093D0070B5FB4E0546102180
:10082000304600F05AFF00242021304600F055FFEA
:1008300028064FF08001304602D500F04CFF01E061
:1008400000F04BFF2021304600F045FF6806641C95
:10085000050EE4B2082CE7D33046BDE87040102105
:1008600000F039BF10B504460221E84800F033FF1C
:100870002046BDE81040CFE710B504460221E3480A
:1008800000F029FFC4F30720FFF7C6FFE0B2BDE880
:100890001040C1E710B504460221DC4800F01DFFFE
:1008A0002046BDE81040B7E72DE9F0410646154661
:1008B000A1F11807A3F118042A20FFF7EBFF701C21
:1008C000FFF7DAFF681CFFF7D7FF2B20FFF7E2FFE7
:1008D00007F11A00FFF7D0FF04F11A00FFF7CCFF71
:1008E000BDE8F0412C20D5E7F8B50121042001F046
:1008F0006EF8B020ADF800001024C34E8DF8034010
:1009000003258DF802506946304600F076FEB0218E
:10091000304600F0E0FE0121082001F058F840F2D6
:100920000346ADF800608DF80340B84C8DF80250D6
:100930006946204600F061FE3146204600F0CBFEBD
:100940000121204600F0C9FEC82000F0DFFC012193
:10095000204600F0C0FE142000F0D8FC21152046EF
:1009600000F0B9FE1120FFF795FF642000F0CEFCE7
:100970002120FFF78FFFB120FFF78CFF0520FFF745
:1009800071FF3A20FFF76EFF3A20FFF76BFFB220AE
:10099000FFF780FF0520FFF765FF3A20FFF762FFB2
:1009A0003A20FFF75FFFB320FFF774FF0520FFF742
:1009B00059FF3A20FFF756FF3A20FFF753FF052073
:1009C000FFF750FF3A20FFF74DFF3A20FFF74AFFAD
:1009D000B420FFF75FFF0320FFF744FFC020FFF7BD
:1009E00059FF6220FFF73EFF0220FFF73BFF042084
:1009F000FFF738FFC120FFF74DFFC020FFF732FFA0
:100A0000C220FFF747FF0D20FFF72CFF0020FFF764
:100A100029FFC320FFF73EFF8D20FFF723FF6A2049
:100A2000FFF720FFC420FFF735FF8D20FFF71AFFE7
:100A3000EE20FFF717FFC520FFF72CFF0E20FFF772
:100A400011FFE020FFF726FF1020FFF70BFF0E201D
:100A5000FFF708FF0220FFF705FF0320FFF702FF63
:100A60000E20FFF7FFFE0720FFF7FCFE0220FFF736
:100A7000F9FE0720FFF7F6FE0A20FFF7F3FE12202B
:100A8000FFF7F0FE2720FFF7EDFE3720FFF7EAFE25
:100A90000020FFF7E7FE0D20FFF7E4FE0E20FFF732
:100AA000E1FE1020FFF7DEFEE120FFF7F3FE10204D
:100AB000FFF7D8FE0E20FFF7D5FE0320FFF7D2FE8A
:100AC0000320FFF7CFFE0F20FFF7CCFE0620FFF735
:100AD000C9FE0220FFF7C6FE0820FFF7C3FE0A206A
:100AE000FFF7C0FE1320FFF7BDFE2620FFF7BAFE7A
:100AF0003620FFF7B7FE0020FFF7B4FE0D20FFF70A
:100B0000B1FE0E20FFF7AEFE1020FFF7ABFE3A203D
:100B1000FFF7C0FE0520FFF7A5FE3620FFF7BAFE5F
:100B20007820FFF79FFE2920FFF7B4FEF8BD70B5CF
:100B3000064600217F239F220846FFF7B5FE0024CA
:100B400000253046FFF798FE6D1C802DF9D3641CFC
:100B5000A02CF5D370BD2DE9F0471C46DDF820A090
:100B60001646102B02D0202C02D002E0284D00E0C7
:100B7000284D0B190219521E5B1EFFF795FE6443A8
:100B8000C4F3C70706FB0756DFF8889000254FF02F
:100B90000108A9F1040912E00024317808FA04F0F0
:100BA000014201D0504601E0D9F80000FFF764FE91
:100BB000641CE4B2082CF0D36D1CEDB2761CBD426F
:100BC000EAD3BDE8F08710B514460B460246FFF79E
:100BD0006BFE2046BDE810404EE62DE9F04116467A
:100BE0001F468846054600241A46FFF7ECFF07E03B
:100BF0006D1CEDB23A4641462846FFF7E4FF641CFF
:100C0000B442F5D3BDE8F08100080140000C01407A
:100C1000A0020020200000202DE9F0471F461646C4
:100C20000C468046DDF82090FFF73EFE08E0454682
:100C300003E04846FFF720FE6D1CB542F9D9641C5D
:100C4000BC42F4D9BDE708B54B1C0092421C401EC3
:100C5000491EFFF7E1FF08BD2DE9FE4F151ACDE94A
:100C600000104FF000085E1A47464FF0FF30002D8D
:100C700002DD4FF0010102E003D14FF000018B468D
:100C800002E08346C5F10005002E02DD4FF00100B1
:100C900002E003D14FF00000824602E08246C5F137
:100CA0000006B54201DD2C4600E03446601C4FF0E2
:100CB0000009029016E000BFDDE900100C9AFFF772
:100CC00082FFA8443744A04504DD0198A8EB04083E
:100CD00058440190A74203DD00983F1B5044009008
:100CE00009F1010902998945E6D3BDE8FE8F2DE996
:100CF000F8431D46089C1646884607460B46009456
:100D0000FFF7AAFF3A462B46414610460094FFF7EC
:100D1000A3FF2B463246194638460094FFF79CFF46
:100D200032462B46414610460094FFF795FFBDE83A
:100D3000F8832DE9FF4F81B00E4607460025039C3E
:100D400039E0711B381B88468246049AFFF73BFF47
:100D5000381941468146049AFFF735FF3119781B4F
:100D60008B468046049AFFF72EFF311B40460091C8
:100D7000049AFFF728FF711988464846049AFFF73E
:100D800022FF78198146049A0099FFF71CFF594603
:100D90004846049AFFF717FF41465046049AFFF76A
:100DA00012FF6D1C05FB05F004FB04010398404392
:100DB000814200DD641EA542C3DD05B0BDE8F08FB1
:100DC0002DE9F05F1C468846814690282CD80846BD
:100DD000B8F1700F28D8203AD6B200F10F0309F10C
:100DE000070241464846FFF75FFD9448002C4FF04C
:100DF00000041BD04FEA000B04EB061100251BF882
:100E0000017008EB040AF80705D0514609EB05000C
:100E10000A9AFFF7D8FE6D1C7F08EDB2082DF2D3B9
:100E2000641CE4B2102CE7D3BDE8F09FDFF8108219
:100E30004FEA000904EB0611002519F80170F807C4
:100E400001D00A9801E0D8F80000FFF715FD6D1CED
:100E50007F08EDB2082DF2D3641CE4B2102CE9D364
:100E6000E2E72DE9F8431F4616460D4604464FF4C7
:100E7000784813E0902C01D900241035702D04D946
:100E8000002425464046FFF752FE009732780023A3
:100E900029462046FFF794FF0834761C3078002856
:100EA000E8D144E70246012000E05043491EC9B2A0
:100EB000FBD270472DE9F84F00261D4691468A4621
:100EC00007463446DDF8288025E0281B401EC1B2C5
:100ED0000A20FFF7E7FFB9FBF0F00A21B0FBF1F2BF
:100EE00001FB120026B9691E8C4201DA40B10126CD
:100EF0003030C2B207EBC4000023CDF8008005E01B
:100F0000002307EBC4002022CDF800805146FFF7F4
:100F100057FF641CE4B2AC42D7D3BDE8F88F2DE98B
:100F2000F84F8A4680461D4646491046DDF828900F
:100F300002F032FF02F0E4FE0746002429E0281BFD
:100F4000401EC1B20A20FFF7ADFFB7FBF0F00A2147
:100F5000B0FBF1F201FB1206A81E84420DD108EB92
:100F6000C50000232E2251461038CDF80090FFF71F
:100F700027FF641C6D1CE4B2EDB23036F2B208EB10
:100F8000C40000235146CDF80090FFF719FF641C00
:100F9000E4B2AC42D3D3C0E770B5FFF785FC2A4D6D
:100FA000042440F6AC5600BF05EB44004078FFF740
:100FB00059FC15F81400FFF755FC641CB442F3DB30
:100FC00070BD70B5FFF770FC204D042440F6AC56A0
:100FD00005EB44004078FFF745FC15F81400FFF7D7
:100FE00041FC641CB442F3DB70BD70B5FFF75CFCE0
:100FF000174D042440F6AC5605EB44004078FFF74B
:1010000031FC15F81400FFF72DFC641CB442F3DB2F
:1010100070BD70B5FFF748FC0E4D042440F6AC5689
:1010200005EB44004078FFF71DFC15F81400FFF7AE
:1010300019FC641CB442F3DB70BD0000FA400008E8
:101040001C0000200000C842EA46000812630008A5
:101050003A7F0008629B000830B5012187B0480242
:1010600000F0B5FC0121042000F0B1FC0820ADF82F
:101070001400564D00248DF8174005A9284600F0AD
:10108000BCFA4020ADF8140005A9284600F0B5FAD6
:101090004FF46020CDE902048DF8044000948DF8EF
:1010A000054001204A4C8DF810006946204600F0AA
:1010B0008DFE06208DF810006946464800F086FE39
:1010C000072301220321204600F000FF072301220D
:1010D0000621204600F0FAFE0121204600F0A8FE7D
:1010E0000121204600F09AFE204600F0B4FE204682
:1010F00000F0B6FE0028FAD1204600F0B8FE2046E7
:1011000000F0BAFE0028FAD107B030BD10B5304C5F
:10111000072301220321204600F0D8FE01212046AA
:1011200000F07CFE204600F096FE072301220321FA
:10113000204600F0CBFE0121204600F06FFE204645
:1011400000F089FE072301220321204600F0BEFEA5
:101150000121204600F062FE204600F07CFE0121C5
:10116000204600F090FE0221204600F083FF002878
:10117000F9D0204600F0EEFE0121204600F083FE6B
:101180000221204600F076FF0028F9D02046BDE875
:10119000104000F0DFBE10B50D4C072301220621E0
:1011A000204600F093FE0121204600F037FE012189
:1011B000204600F068FE0221204600F05BFF002878
:1011C000F9D02046BDE8104000F0C4BE0008014040
:1011D00000240140002801402DE9FF410121142095
:1011E00000F0F5FB0124314FADF80C4004268DF8DA
:1011F0000F6003A9384600F000FA0225ADF80C5044
:1012000003A9384600F0F9F9ADF80C6003A9384697
:1012100000F0F3F90121084600F0D9FB002102207B
:1012200000F0A3FA00208DF804000C208DF80500D2
:1012300000948DF80640684600F052FF06208DF8B5
:1012400008008DF809508DF80A508DF80B4002A85F
:1012500000F029F90121022000F087FA6846009584
:1012600000F03EFF07208DF8080002A800F01BF9EF
:101270000221084600F079FA6846009600F030FF37
:1012800008248DF8084002A800F00DF9032102207F
:1012900000F06BFA6846009400F022FF09208DF8F8
:1012A000080002A800F0FFF8BDE8FF81001001402F
:1012B00010B56FF0040000F036F9204820490068AE
:1012C000B0FBF1F0C1B21F4801EB41020170C2EB6B
:1012D000C1114FF6FF7202EAC101418010BD1949E8
:1012E000097848434FF0E021486100228A6108698B
:1012F00040F0010008610869C30701D0C003FAD5B6
:10130000086920F0010008618A6170470D49498829
:1013100048434FF0E021486100228A61086940F0AB
:10132000010008610869C30701D0C003FAD5086944
:1013300020F0010008618A61704700000800002069
:1013400000127A0080030020704740490A88520644
:10135000FCD53E4AC1B2121D1180704770B50546DA
:1013600086B0012144F2050000F031FB4FF400701B
:10137000ADF8100003248DF812401820344E8DF87B
:10138000130004A9304600F038F93015ADF810000C
:1013900004208DF8130004A9304600F02EF9252012
:1013A0008DF814008DF815408DF8164001208DF849
:1013B000170005A800F077F80020ADF80400ADF89C
:1013C0000600ADF80800ADF80C000C201F4CADF87D
:1013D0000A0000956946204600F078FB012240F2A1
:1013E0002551204600F0EFFB0121204600F0E1FBF3
:1013F00006B070BD70B5154C40F22551204600F086
:1014000099FC00280ED0204600F02DFCC2B21148F5
:1014100001880B0406D44C044FF0000306D50A2AB9
:1014200001D0038070BD41F400410DE00D2A09D0C8
:10143000C1F30D04084D491C89B22A550180C72902
:10144000EFD870BD41F48041018070BD003801408B
:1014500000080140840300209C5B0020094880476D
:1014600009480047FEE7FEE7FEE7FEE7FEE7FEE786
:10147000FEE7FEE7FEE7FEE704480549054A064B9E
:10148000704700006507000831010008C85C0020B3
:10149000C8620020C85E0020C85E002028490843BA
:1014A00028490860704770B50F23C478017801227D
:1014B000F4B1244C2468457804F4E064C4F5E06495
:1014C000240AC4F10406E3408478B5401C402C4350
:1014D00001F1E021230181F80034007800F01F01C0
:1014E0008A404009800000F1E020C0F8002170BD72
:1014F00001F01F0082404809800000F1E020C0F8A0
:10150000802170BD104A114001430E48001F016048
:1015100070470C4A121D0029116801D0014300E0F8
:101520008143116070474FF0E0210428086903D01F
:1015300020F004000861704740F00400FAE7000062
:101540000000FA050CED00E080FFFF1F914910B587
:10155000884206D10121042000F04BFA002104202A
:101560003BE08D49884206D10121082000F041FA74
:101570000021082031E08949884206D1012110204C
:1015800000F037FA0021102027E08549884206D173
:101590000121202000F02DFA002120201DE08149AA
:1015A000884206D10121402000F023FA002140208A
:1015B00013E07D49884206D10121802000F019FA0C
:1015C0000021802009E0794988420AD1841501214F
:1015D000204600F00EFA00212046BDE8104000F041
:1015E00008BA10BD10B50121084600F002FA00212A
:1015F000BDE81040012000F0FCB9F0B5CA78002524
:1016000002F00F03D20601D58A7813430A784FF00F
:101610000F0E12F0FF0F4FF001021DD0D0F8004066
:101620000F8802FA05F63740B74211D14FEA850C10
:101630000EFA0CF724EA070703FA0CF43C43CF78C0
:10164000282F02D0482F02D002E0466100E0066158
:101650006D1C082DE4D304600C88FF2C1ED944684F
:101660005FF0000606F1080702FA07F50F882F4021
:10167000AF420FD14FEA860C0EFA0CF7BC4303FAC7
:101680000CF73C43CF78282F00D14561CF78482F05
:1016900000D10561761C082EE4D34460F0BD4FF6FE
:1016A000FF710180022181700421C17070470246E0
:1016B000002092680A4200D001207047806880B202
:1016C000704702460020D2680A4200D001207047CD
:1016D000C06880B2704701617047416170470AB1CC
:1016E0000161704741617047C160704741F48032C9
:1016F0008261816182618169806970472C4B10B57C
:101700001A684FF68074224042EA001008431860BD
:1017100010BD2849C8617047F0B5254C002801DA92
:10172000E36900E06368420D120185B2C0F301571E
:101730009540C0F30346032F05D0C2020AD5032209
:10174000B240934307E023F07062636823F0706354
:10175000636002E0AB4343F0706201B12A430028AA
:1017600001DAE261F0BD6260F0BD10B58A0721F0D8
:1017700003040F49130F21440F228C689A409443AD
:101780008C608A68984002438A6010BD0949C1F89C
:10179000DC00704700080140000C014000100140CF
:1017A0000014014000180140001C014000200140CD
:1017B0000000014000002042A448016841F00101FE
:1017C00001604168A24A114041600168A14A11408C
:1017D0000160016821F480210160416821F4FE016B
:1017E00041604FF41F018160704798490A6822F4F4
:1017F00080320A600A6822F480220A60B0F5803FD5
:1018000007D0B0F5802F03D1086840F4A02008600D
:101810007047086840F48030F9E702460020530919
:101820008A49012B0AD0022B0AD0496A02F01F0212
:10183000012393400B4200D0012070470968F5E76F
:10184000096AF3E718B500204FF4A0640090312036
:10185000FFF7E3FF0099491C0091A14201D0002845
:10186000F5D03120FFF7D9FF002800D0012018BDA6
:1018700076490A6822F0F80242EAC0000860704720
:10188000754908607047714A5368084323F47C1314
:101890001843506070477049086670476B4A51683A
:1018A00021F003010143516070476848406800F02F
:1018B0000C007047654A516821F0F0010143516006
:1018C0007047624A516821F4E061014351607047FA
:1018D0005E494A6822F4605242EAC000486070479C
:1018E0005A4A0029517A01D0014300E081435172E4
:1018F00070475949C1F8D8007047544A516821F4DB
:1019000040410143516070475049002281F8202036
:1019100081F82020012802D0042802D1052081F876
:10192000200070474D490860704748490A6A0243E1
:101930000A627047494944390860704730B54349E5
:101940004A6812F00C03464A03D0042B01D0082B3E
:1019500021D002604A680F23424C03EA1212A35CB2
:101960000268DA4042604B68072505EA1323E35C0E
:1019700022FA03F383604B6805EAD323E35CDA4081
:10198000C2604968032303EA9131231F595CB2FB0B
:10199000F1F1016130BD4A684B6802F470124FF0FA
:1019A000020413F4803F04EB924202D04B689B0385
:1019B00001D52D4B00E02A4B5A43CAE7234A0029A0
:1019C000516901D0014300E08143516170471F4AD2
:1019D0000029916901D0014300E081439161704782
:1019E0001A4A0029D16901D0014300E08143D16145
:1019F0007047164A0029D16801D0014300E08143B5
:101A0000D1607047114A0029116901D0014300E0FB
:101A100081431161704711494039086070470E4990
:101A2000C86470470949C87170470848416A41F065
:101A3000807141627047054A0146002092680A425F
:101A400000D00120704701498872704700100240A1
:101A50000000FFF8FFFFF6FE000042428004424211
:101A600000127A008A03002000093D00C44910B525
:101A700088420AD101218C032046FFF7BAFF204695
:101A8000BDE810400021FFF7B4BFBE49884202D133
:101A900001214C0410E0BC49884202D101218C0490
:101AA0000AE0BA49884202D10121CC0404E0B849D5
:101AB00088420AD101210C052046FFF7A3FF2046EA
:101AC000BDE810400021FFF79DBF10BD30B50446B2
:101AD000008A85B00D464CF6FF710840E988014345
:101AE0002182A1894EF6F3100140A8882A8910436B
:101AF0006A890A431043A081A08A4FF6FF4108403B
:101B0000A9890143A1826846FFF718FF9C488442D7
:101B100001D1039800E00298A189090400EBC001FB
:101B200001EB0010296801D5490000E08900B0FBF5
:101B3000F1F06422B0FBF2F109010B096FF0180516
:101B40006B4300EB8300A3891D044FF0320306D5DD
:101B500003EBC000B0FBF2F000F0070005E003EB80
:101B60000010B0FBF2F000F00F000843208105B038
:101B700030BD4FF41651016000218180C180018188
:101B80000C2242818181704710B5038A4FF2FF0217
:101B900013400A884C8822438C88C9880C4322430E
:101BA0001A43028210BD0021018041808180C180E2
:101BB00070470029818902D041F4005101E021F4ED
:101BC00000518181704710B5C1F3421301F01F0429
:101BD0000121A140012B07D0022B07D01430002A8D
:101BE000026805D00A4304E00C30F8E71030F6E74D
:101BF0008A43026010BD002A828A01D00A4300E0B5
:101C00008A4382827047028A22F00F020282028A8D
:101C10000A4302827047828922F4006282818289AB
:101C20000A43828170470029818902D041F0020174
:101C300001E021F0020181817047028A22F0200236
:101C40000282028A0A43028270470029018A02D076
:101C500041F4804101E021F4804101827047C1F3E9
:101C60000801818070478088C0F30800704781892F
:101C700041F0010181817047028BD2B20283028B55
:101C800042EA012101837047028B02F47F42028302
:101C9000028B0A43028370470029818A02D041F0F7
:101CA000200101E021F02001818270470029818A12
:101CB00002D041F0100101E021F010018182704753
:101CC0000029818A02D041F0080101E021F00801D9
:101CD000818270470029818902D041F4004101E0EE
:101CE000C1F30E01818170470029818A02D041F43D
:101CF000006101E021F4006181827047828A22F054
:101D000004028282828A0A43828270470029818A81
:101D100002D041F0020101E021F00201818270470E
:101D20000246002012880A4200D001207047C943B1
:101D30000180704730B501F01F0201240025C1F376
:101D4000421304FA02F2012B0FD0022B0FD0838A28
:101D50004FEA11210088134204FA01F400EA04005A
:101D600001D000B10125284630BD8389F0E7038A00
:101D7000EEE70A0A01219140C94301807047000043
:101D8000003801400044004000480040004C004042
:101D900000500040C54910B5884202D101214415C8
:101DA0000AE0C349884202D10121041504E0C14977
:101DB00088420AD10121CC032046FFF71AFE2046B3
:101DC000BDE810400021FFF714BE10BD10B54268F9
:101DD000B94B0C791A400B6842EA04221343436062
:101DE0008368B64A1340D1E9024222434C7943EA60
:101DF00044031A438260C26A097C22F47002491EBD
:101E0000C9B242EA0151C16210BD002101600171F5
:101E100041718160C16001210174704700298168AE
:101E200002D041F0010101E021F001018160704721
:101E30000029816802D041F4807101E021F48071B1
:101E400081607047002A4268C9B201D00A4300E0AD
:101E50008A4342607047816841F0080181607047A1
:101E6000014600208968090700D501207047816874
:101E700041F00401816070470146002089684907EC
:101E800000D5012070470029816802D041F4A001EB
:101E900001E021F4A00181607047014600208968BB
:101EA000490200D5012070474268491E22F4604271
:101EB00042EA4131416070470029416802D041F453
:101EC000006101E021F400614160704770B50724B2
:101ED00009290AD9C568A1F10A0606EB4606B440ED
:101EE000A543B3401D43C56007E0056901EB41060A
:101EF000B440A543B3401D4305611F23072A09D2FF
:101F0000446B521E02EB820293409C4391400C436F
:101F1000446370BD0D2A09D2046BD21F02EB82020A
:101F200093409C4391400C43046370BDC46A0D3AD6
:101F300002EB820293409C4391400C43C46270BD0B
:101F40000029816802D041F4801101E021F4801160
:101F500081607047C06C80B2704754484C30006854
:101F600070470029416802D041F4806101E021F40A
:101F70008061416070470029416802D041F480517E
:101F800001E021F4805141607047826822F4E04210
:101F90000A43826070470029816802D041F4004101
:101FA00001E021F40041816070470029816802D07E
:101FB00041F4021101E021F40211816070470146F1
:101FC00000208968890200D50120704770B5072478
:101FD00009290AD9C568A1F10A0606EB4606B440EC
:101FE000A543B3401D43C56007E0056901EB410609
:101FF000B440A543B3401D430561836BC3F3015453
:10200000121B921C02EB82041F22A2409343A140A8
:102010000B43836370BD826B491E22F4401242EA77
:1020200001518163704708B508440090026008BD03
:1020300008B5084428300090006880B208BD4268A6
:102040001F4B1A400A4342607047416282627047E8
:10205000426822F01F020A43426070471349083168
:102060000028086802D040F4000001E020F40000DD
:10207000086070470246002012680A4200D0012022
:102080007047C9430160704710B50246002054688C
:102090000B0AC9B20C401168194202D0002C00D0C2
:1020A000012010BD6FEA112101607047002401403A
:1020B00000280140003C0140FFFEF0FFFDF7F1FF6A
:1020C000FFFD3FFF374900200860091D0860091D1A
:1020D0000860091D086033493348143108607047AF
:1020E00030B530498379026853B30B6893430B6072
:1020F0000A1D13680468A343136002790A44136835
:10210000046823431360274A083213680468A34312
:102110001360131D1C680568AC431C604479102CC7
:1021200005D021440A68006802430A6030BD116886
:10213000046821431160196800680143196030BDCB
:102140000079084401689143016030BD00210160BD
:1021500001710C22427181717047124910310A6875
:1021600002430A60704701460E4A0020143212688A
:102170000A4200D0012070470A49143108607047B4
:10218000084A014600201268064B0A4014331B68B7
:102190000B4202D0002A00D00120704701491431BF
:1021A0000860704700040140FFFF0F002DE9F04F69
:1021B0004FF0000C4FF0000301EB9C5EBEF90250A3
:1021C000BEF900400EF5806EBEF90290BEF90080A7
:1021D0000EF5806EBEF90270BEF900600EF5806EDD
:1021E000BEF902B0BEF900A00EF5806ED044D9440D
:1021F000A8EB4A0AA9EB4B0B4FEAA4044FEAA5054A
:1022000004EBA60405EBA705A4EB6606A5EB6707A0
:1022100004EBA80405EBA905A4EB6808A5EB690984
:1022200006EBAB06A7EBAA07A6EB6B0B07EB6A0A5C
:10223000458020F8044B478020F8046BA0F80290FA
:1022400020F8048BA0F802A020F804BB03F10103DE
:1022500093FAA3FCB3F5807FAED1A0EB82014FF0DF
:10226000100312090FF2341000F1000006B403EB62
:10227000430C6144A2F5803202EB8332B1F9025083
:10228000B1F90040A1EB0301B0F902B0B0F900A030
:1022900000F10400A5EB040E0EFB0BFC0AEB4B0E49
:1022A00005FB0ACB04FB0ECAB1F90250B1F900409C
:1022B000A1EB0301B0F90290B0F9008000F1040035
:1022C000A5EB040E0EFB09FC08EB490E05FB08C943
:1022D00004FB0EC8B1F90250B1F90040A1EB0301B3
:1022E000B0F90270B0F9006000F10400A5EB040E33
:1022F0000EFB07FC06EB470E05FB06C704FB0EC6EC
:10230000B1F90250B1F9004001F10001D044D944C3
:10231000A8EB4A0AA9EB4B0B4FEAA4044FEAA50528
:1023200004EB264405EB2745A4EBE636A5EBE7379F
:1023300004EB284405EB2945A4EBE838A5EBE93983
:1023400006EB2B46A7EB2A47A6EBEB3B07EBEA3A5B
:102350004D800C8019444F800E801944A1F80290E2
:10236000A1F800801944A1F802A021F804BBB2F53D
:10237000803283DA03EB430C6144A2F101025FEA8D
:10238000024E18BFA0EB0C007FF476AF06BC4FEAFC
:10239000830392087FF46AAFBDE8F08F004000002D
:1023A00000400000004000005DDD213BA3227E18BC
:1023B0000000412D7EA5412D0000412D00C00040B0
:1023C0005DDD82E75DDD213B7EA5412D0040000003
:1023D0000040000000400000AA2A94126B39460613
:1023E00049327C0CA8118E2349327C0CA3227E1822
:1023F00021F77931AA2A9412A8118E235DDD213BA1
:10240000A3227E180000412D95C6B13F461A2B1E0F
:1024100058EE3735BEB4C53EA8118E235DDD213B95
:1024200063A97138DF089A28B7CDC53E7EA5412D36
:102430000000412D00C0004063A92B1E21F7793117
:10244000BEB4C53EBEB47C0C58EE373561AC213B02
:1024500095C6BAF9BAE571383BA737355DDD82E735
:102460005DDD213B7EA5412D21F766D756D53F3D49
:102470003BA78E23A811C9CAB7CDC53E61AC7E1853
:10248000AA2AC1C295C6B13FBEB47C0C0040000070
:1024900000400000004000001E3BB504693E920170
:1024A000C83C2403EB356409C83C24036B39460659
:1024B0006C30060E1E3BB504EB356409AA2A941253
:1024C0006B39460649327C0CAE240917AF37D60764
:1024D000882E8D0F7E1E5D1BEB356409AA2A94128F
:1024E00024188C1F1E34F10AB3269015A8118E23D0
:1024F00049327C0CA3227E18140B60276C30060E28
:102500007E1E5D1B7104FB2A882E8D0F461A2B1E22
:10251000C7FD5A2E9D2C1211FE15E72021F77931A7
:10252000AA2A9412A8118E2387F05334B2281314C8
:10253000480D202602EAE536B3269015DF089A28D2
:102540009CE32B39AE2409177104FB2A5DDD213B86
:10255000A3227E180000412D4ED7C53C9320EF19D1
:102560008FFB6C2F78D1153E7E1E5D1B21F77931D4
:10257000E2CB0F3F641CC61CB8F2683395C6B13F6E
:10258000461A2B1E58EE373597C1FB3F24188C1F77
:1025900002EAE536F0BCEC3FFE15E720BAE57138FB
:1025A000A6B8853FD5133D2282E1DB39BEB4C53ED6
:1025B000A8118E235DDD213B40B1AF3D790FDA24B8
:1025C0004DD9423C2EAE423C480D202656D53F3DCB
:1025D0008EAB823A140B602778D1153E63A971380F
:1025E000DF089A28B7CDC53EB1A71236A906CE2975
:1025F00015CA4F3F78A668337104FB2A95C6B13FD0
:10260000BCA576303902212C38C3EC3F7EA5412D84
:102610000000412D00C00040BCA5CE29C7FD5A2EA8
:10262000F0BCEC3F78A620268FFB6C2F09BAB13F97
:10263000B1A73D2257F976304DB74F3F63A92B1E06
:1026400021F77931BEB4C53E8EABEF19ECF474328C
:102650005EB2153E2EAE9015B8F268332DB03F3DF8
:1026600040B1121187F053342EAE423CBEB47C0C04
:1026700058EE373561AC213BA6B8D6072BEC1236A5
:10268000C8AADB39F0BC240302EAE53663A9713835
:1026900097C16EFEDCE7B03734A8E53695C6BAF9C7
:1026A000BAE571383BA73735E2CB0FF59CE32B3900
:1026B00078A6683378D173F082E1DB39EDA5793102
:1026C0004ED7EDEB6DDF823A99A56C2F5DDD82E789
:1026D0005DDD213B7EA5412D9CE33AE352DBB63B19
:1026E00099A5FB2A02EA19DF4DD9423CEDA59A28AB
:1026F00087F026DB4ED7C53C78A6202621F766D783
:1027000056D53F3D3BA78E23C7FDDFD363D3AF3DF7
:1027100034A8E720710494D078D1153E63A92B1E0C
:10272000140B8CCD94CF723EC8AA5D1BA811C9CAE8
:10273000B7CDC53E61AC7E18241850C8E2CB0F3F20
:102740002EAE90157E1E25C615CA4F3F2DB0941291
:10275000AE244AC451C8853F5EB28D0FAA2AC1C2B9
:1027600095C6B13FBEB47C0C6C308EC1E2C4D43F80
:102770004DB76409EB35B1C038C3EC3F09BA460622
:102780001E3B2CC097C1FB3FF0BC2403004000005F
:102790000040000000400000D03E2E019B3F65003D
:1027A000363FC9009A3D5B02363FC900693E92013F
:1027B0005F3C8803D03E2E019A3D5B021E3BB50470
:1027C000693E9201C83C2403D939E205023EF70173
:1027D000F43BED038E380E079A3D5B021E3BB504B9
:1027E0003F373908313DC002463A7E05EB35640972
:1027F000C83C24036B39460692348E0A5F3C88033A
:102800008E380E073433B70BF43BED03AF37D607E2
:10281000D231DF0C8A3B5104CE369D086C30060E57
:102820001E3BB504EB356409022F2B0FB23A1A0593
:1028300005352B0A932D5010463A7E051E34F10AB9
:10284000212C7311D939E2053433B70BAA2A94121B
:102850006B39460649327C0C3129B413FD38AA067F
:102860005B31410DB327D2148E380E076C30060E43
:102870003226EE151F3872077B2FCA0EAE240917B9
:10288000AF37D607882E8D0F262321183F373908FA
:10289000932D50109C213719CE369D089D2C121176
:1028A0000E204B1A5D360109A42BD3117E1E5D1B31
:1028B000EB356409AA2A9412EB1C6C1C7835C70905
:1028C000AF295413561B791D05352B0AB228131452
:1028D000BE19841E92348E0AB327D21424188C1F7A
:1028E0001E34F10AB326901588169120A933540B93
:1028F000B1254C16EA1493213433B70BAE240917D3
:102900004A139222BF321A0CA923C417A8118E238E
:1029100049327C0CA3227E1805108824D231DF0CAA
:102920009C213719610E7E255B31410D9320EF19F3
:10293000BB0C7126E430A40D891FA71A140B602765
:102940006C30060E7E1E5D1B6D094C28F42F680E40
:10295000721D121CC40735297B2FCA0E641CC61CAD
:102960001B061A2A022F2B0F561B791D7104FB2AF6
:10297000882E8D0F461A2B1EC702D82B0E2EEE0F57
:102980003519DC1E1C01B22C932D501024188C1FFD
:1029900072FF882D182DB11011173A20C7FD5A2E3D
:1029A0009D2C1211FE15E7201DFC282F212C7311E0
:1029B000EA14932173FAF22FA42BD311D5133D22DD
:1029C000CAF8B830282B3412BF12E72221F7793128
:1029D000AA2A9412A8118E2379F536322D2AF412E0
:1029E00091103524D2F3EF32AF295413790FDA2442
:1029F0002CF2A3333129B413610E7E2587F05334B2
:102A0000B2281314480D2026E3EEFF343328731444
:102A10002E0CC12641EDA535B327D214140B602727
:102A2000A1EB483633273115FA09FE2702EAE536CD
:102A3000B3269015DF089A2865E87E373226EE1512
:102A4000C4073529CBE61238B1254C16A906CE2984
:102A500032E5A1382F25AB168D05652A9CE32B396D
:102A6000AE2409177104FB2A08E2B0392B2466173B
:102A700055038F2B77E0303AA923C4173902212C54
:102A8000E9DEAB3A262321181C01B22C5DDD213B87
:102A9000A3227E180000412DD5DB923B1F22DB18BC
:102AA000E4FECF2D4FDAFD3B9C213719C7FD5A2E8E
:102AB000CDD8643C17219319ABFCE42E4ED7C53C0E
:102AC0009320EF198FFB6C2FD3D5213D0E204B1A8D
:102AD00073FAF22F5CD4783D891FA71A57F9763024
:102AE000E8D2C93D041F021B3CF8F93078D1153EED
:102AF0007E1E5D1B21F779310CD05C3EF81DB81BA2
:102B000006F6F831A5CE9D3E721D121CECF474320F
:102B100041CDD83EEB1C6C1CD2F3EF32E2CB0F3F21
:102B2000641CC61CB8F2683388CA403FDD1B201DF8
:102B30009FF1DF3332C96B3F561B791D87F0533449
:102B4000E1C7913FCE1AD31D6FEFC63495C6B13F92
:102B5000461A2B1E58EE37354EC5CC3FBE19841E83
:102B600041EDA5350CC4E13F3519DC1E2BEC1236C6
:102B7000CFC2F13FAD18341F16EB7D3697C1FB3F36
:102B800024188C1F02EAE53665C000409B17E31F3E
:102B9000EFE84B3738BFFF3F11173A20DCE7B0377B
:102BA00011BEF83F88169120CBE61238F0BCEC3FFE
:102BB000FE15E720BAE57138D4BBDB3F74153D2123
:102BC000AAE4CF38BFBAC43FEA1493219CE32B395F
:102BD000AFB9A73F5F14E8218EE28439A6B8853FDC
:102BE000D5133D2282E1DB39A2B75D3F4A13922221
:102BF00077E0303AA5B6303FBF12E7226DDF823A68
:102C0000AFB5FD3E34123B2364DED33ABEB4C53EBD
:102C1000A8118E235DDD213BD5B3883E1D11E22333
:102C200057DC6D3BF2B2453E9110352452DBB63B8A
:102C300015B2FC3D051088244FDAFD3B40B1AF3D95
:102C4000790FDA244DD9423C71B05B3DED0E2C2555
:102C50004DD8853CA9AF033D610E7E254ED7C53CBE
:102C6000E8AEA53CD40DCF2551D6033D2EAE423C57
:102C7000480D202656D53F3D7BADDA3BBB0C712677
:102C80005CD4783DD0AC6D3B2E0CC12663D3AF3DF8
:102C90002BACFA3AA10B11276DD2E33D8EAB823AF1
:102CA000140B602778D1153EF8AA063A870AAF2799
:102CB00085D0453E6AAA8439FA09FE2794CF723E30
:102CC000E3A9FD386D094C28A5CE9D3E63A9713856
:102CD000DF089A28B7CDC53EEBA8E1375208E728B0
:102CE000CCCCEB3E7BA84B37C4073529E2CB0F3F5A
:102CF00012A8B13636078129FBCA303FB1A7123678
:102D0000A906CE2915CA4F3F57A76E351B061A2AAA
:102D100032C96B3F05A7C6348D05652A51C8853F6A
:102D2000BBA61934FF04B02A72C79C3F78A668334B
:102D30007104FB2A95C6B13F3EA6B232E303452B90
:102D4000BAC5C43F0BA6F83155038F2BE2C4D43F5C
:102D5000E0A53931C702D82B0CC4E13FBCA57630C1
:102D60003902212C38C3EC3FA1A5AF2FAA016A2C50
:102D700066C2F53F8DA5E42E1C01B22C97C1FB3F26
:102D800081A5152E8E00FA2CCAC0FF3F7EA5412DCD
:102D90000000412D00C0004081A56A2C72FF882DE3
:102DA00038BFFF3F8DA58F2BE4FECF2D73BEFB3FB9
:102DB000A1A5B02A56FE152EB0BDF53FBCA5CE2963
:102DC000C7FD5A2EF0BCEC3FE0A5E72839FD9F2E49
:102DD00032BCE13F0BA6FE27ABFCE42E77BBD43F11
:102DE0003EA611271DFC282FBFBAC43F78A6202677
:102DF0008FFB6C2F09BAB13FBBA62C2501FBAF2F6F
:102E000056B99C3F05A7352473FAF22FA6B8853F23
:102E100057A73B23E5F93430F8B76B3FB1A73D2204
:102E200057F976304DB74F3F12A83D21CAF8B83058
:102E3000A5B6303F7BA83A203CF8F93000B60F3FEA
:102E4000EBA8341FAEF739315EB5EB3E63A92B1EFC
:102E500021F77931BEB4C53EE3A9201D93F6B931FF
:102E600022B49D3E6AAA121C06F6F83188B3723E5F
:102E7000F8AA021B79F53632F2B2453E8EABEF1955
:102E8000ECF474325EB2153E2BACDB185FF4B23258
:102E9000CDB1E33DD0ACC417D2F3EF3240B1AF3D7A
:102EA0007BADAB1645F32C33B5B0783D2EAE901507
:102EB000B8F268332DB03F3DE8AE73142CF2A33363
:102EC000A9AF033DA9AF54139FF1DF3328AFC53C31
:102ED00071B0341213F11934A9AE853C40B112110E
:102EE00087F053342EAE423C15B2EE0FFBEF8D341B
:102EF000B6ADFD3BF2B2CA0E6FEFC63441ADB63B84
:102F0000D5B3A40DE3EEFF34D0AC6D3BBEB47C0C66
:102F100058EE373561AC213BAFB5540BCCED6E3577
:102F2000F6ABD33AA5B62B0A41EDA5358EAB823A66
:102F3000A2B70109B6ECDC3529AB303AA6B8D60702
:102F40002BEC1236C8AADB39AFB9AA06A1EB48367A
:102F50006AAA8439BFBA7E0516EB7D360FAA2B39D3
:102F6000D4BB51048CEAB136B7A9CF38F0BC2403E6
:102F700002EAE53663A9713811BEF70178E918371E
:102F800012A9123838BFC900EFE84B37C5A8B037CF
:102F900065C09BFF65E87E377BA84B3797C16EFE07
:102FA000DCE7B03734A8E536CFC240FD53E7E13760
:102FB000F1A77D360CC413FCCBE61238B1A712364C
:102FC0004EC5E6FA42E6423874A7A53595C6BAF969
:102FD000BAE571383BA73735E1C78EF832E5A1383D
:102FE00005A7C63432C963F7AAE4CF38D3A6533451
:102FF00088CA39F623E4FD38A4A6DF33E2CB0FF507
:103000009CE32B3978A6683341CDE6F315E35839B4
:1030100050A6EF32A5CEBFF28EE284392CA67432D0
:103020000CD098F108E2B0390BA6F83178D173F0E2
:1030300082E1DB39EDA57931E8D24FEFFCE0063AC9
:10304000D3A5F9305CD42DEE77E0303ABCA57630CC
:10305000D3D50CEDF2DF593AA9A5F22F4ED7EDEBFF
:103060006DDF823A99A56C2FCDD8CFEAE9DEAB3A75
:103070008DA5E42E4FDAB4E964DED33A85A55A2E45
:10308000D5DB9AE8E1DDFA3A7FA5CF2D5DDD82E759
:103090005DDD213B7EA5412DE9DE6DE6DADC473BB7
:1030A0007FA5B22C77E059E557DC6D3B85A5212C37
:1030B00008E248E4D5DB923B8DA58F2B9CE33AE3F5
:1030C00052DBB63B99A5FB2A32E52DE2D1DADA3B99
:1030D000A9A5652ACBE624E14FDAFD3BBCA5CE29A4
:1030E00065E81DE0CED9203CD3A5352902EA19DFD9
:1030F0004DD9423CEDA59A28A1EB18DECDD8643C11
:103100000BA6FE2741ED19DD4DD8853C2CA6602786
:10311000E3EE1EDCCDD7A53C50A6C12687F026DB0A
:103120004ED7C53C78A620262CF231DACFD6E43C27
:10313000A4A67E25D2F33FD951D6033DD3A6DA24E7
:1031400079F551D8D3D5213D05A7352421F766D788
:1031500056D53F3D3BA78E23CAF87FD6D8D45B3DDA
:1031600074A7E72273FA9BD55CD4783DB1A73D22C2
:103170001DFCBBD4DFD3933DF1A79321C7FDDFD363
:1031800063D3AF3D34A8E72072FF06D3E8D2C93D30
:103190007BA83A201C0131D26DD2E33DC5A88C1F1B
:1031A000C70261D1F2D1FC3D12A9DC1E710494D09A
:1031B00078D1153E63A92B1E1B06CCCFFED02D3E29
:1031C000B7A9791DC40707CF85D0453E0FAAC61CF5
:1031D0006D0947CE0CD05C3E6AAA121C140B8CCD34
:1031E00094CF723EC8AA5D1BBB0CD4CC1CCF883ECA
:1031F00029ABA71A610E21CCA5CE9D3E8EABEF194F
:10320000051073CB2ECEB13EF6AB3719A811C9CA43
:10321000B7CDC53E61AC7E184A1324CA41CDD83E15
:10322000D0ACC417EA1483C9CCCCEB3E41AD09172E
:103230008816E8C857CCFD3EB6AD4C16241850C8C9
:10324000E2CB0F3F2EAE9015BE19BEC76ECB203F0E
:10325000A9AED214561B31C7FBCA303F28AF131496
:10326000EB1CA8C688CA403FA9AF54137E1E25C6D2
:1032700015CA4F3F2DB094120E20A7C5A3C95D3FBC
:10328000B5B0D3119C212DC532C96B3F40B112118D
:103290002623B9C4C1C8783FCDB15010AE244AC46A
:1032A00051C8853F5EB28D0F3226E0C3E1C7913F22
:1032B000F2B2CA0EB3277BC372C79C3F88B3060E17
:1032C00031291CC303C7A73F22B4410DAA2AC1C29A
:1032D00095C6B13FBEB47C0C212C6DC227C6BB3F46
:1032E0005EB5B70B932D1DC2BAC5C43F00B6F10A37
:1032F000022FD3C14EC5CC3FA5B62B0A6C308EC170
:10330000E2C4D43F4DB76409D2314FC176C4DB3F2C
:10331000F8B79D08343315C10CC4E13FA6B8D607F1
:103320009234E0C0A1C3E73F56B90E07EB35B1C0F8
:1033300038C3EC3F09BA46063F3788C0CFC2F13FD9
:10334000BFBA7E058E3864C066C2F53F77BBB50450
:10335000D93945C0FEC1F83F32BCED031E3B2CC03D
:1033600097C1FB3FF0BC24035F3C19C030C1FD3F57
:10337000B0BD5B029A3D0BC0CAC0FF3F73BE920155
:10338000D03E03C065C0004038BFC90070477047D9
:1033900070477047704710B500F008F8006810BD1E
:1033A00010B5044600F002F8046010BD00487047F4
:1033B000645C002000487047645C00207546FFF79D
:1033C000F9FFAE4605006946534620F007008546E2
:1033D00018B020B5FEF750F8BDE820404FF00006C9
:1033E0004FF000074FF000084FF0000B21F00701ED
:1033F000AC46ACE8C009ACE8C009ACE8C009ACE830
:10340000C0098D46704710B50446AFF300802046D2
:10341000BDE81040FCF7F3BE2DE9F04106460F462B
:1034200000F016FA041E0D4618BF0120284320F0B4
:103430000040C0F17F6000F1E040C00F0ED0301CB2
:1034400018BF0120384320F00040C0F17F6000F138
:10345000E040C00F04BF0120FFF7A2FF204629462D
:10346000BDE8F08121F00042A2F16052B2F5801F68
:1034700001F0004328BFD2F17F6C0BD95FEA001C3A
:1034800043EAC20242EB507018BF704728BF20F0D9
:1034900001007047B2F5801FBCBF184670474FEA65
:1034A000410C1CF5001F02D2084600F03CBD70B56F
:1034B00000F079F900000089FFF7F6BF4FF00040F7
:1034C000A0F58000704700002DE9C04130B4DFF85E
:1034D000A0C23CEA111418BF3CEA131400F0EC80BF
:1034E00081EA03051CEA111444EAD57418BF1CEAEA
:1034F000131500F0C780A4EB05044FF0004545EA22
:10350000C12145EAC32341EA505143EA525304F131
:103510007F74994204F500344FEAC0204FEAC2227A
:1035200008BF904200F09C804FEA13650FF24016EE
:10353000765D4FEA134506FB05F7C7F1807706FB7A
:1035400007F74FEAD737A7FB03687642C8F58038FC
:10355000A7FB06CE38BFA8F1010807FB08E64FF02D
:10356000000EA6FB028CE6FB03CEDCF1000CCEF1D4
:10357000004E38BFAEF1010EA6FB0C584FF000070D
:103580004FF00005E6FB0E87A1FB08C6A0FB07CEA7
:1035900016EB0E0645F10005E1FB076515F1E04E5F
:1035A0007EBFA4F580345FEA46066D4116F18007C0
:1035B00045F100054FEA17274FEA066647EA056717
:1035C000A6F1DE46B6F1805F4FEA15251FD93846D1
:1035D00024F0010C05EBC471BCF1FE6F01EB0C1182
:1035E00002D8F0BCBDE8008124425CBF01F5801E1A
:1035F0009EEAC47F02D4F0BCBDE80081244238D4E6
:10360000F0BCA1F1C041BDE8004100F01AB94FEA99
:10361000D22242EA43524FEAD323A7FB02864FEA63
:10362000D02040EA415007FB03661EEA0E0F4FEA26
:10363000D12105FB026658BFA6EB0056B6EB00563B
:103640004FEA520E4EEAC37E18EB0E0E56EB530EA7
:10365000BDD518EB02085E417F1C55F10005B6E7A9
:103660004FF480154FF000074FF000064FF00008B0
:10367000ADE7F0BC4FF0000001F1C04101F00041A6
:10368000BDE8008111EA0C1F0CEA131500D00CE014
:1036900013EA0C1F00F025804FF00000F0BC81EA17
:1036A000030101F00041BDE80081F0BCBDE800412C
:1036B00081EA030100F0C5B8F0BCBDE8004170B577
:1036C00000F071F8097EFC3E00F007B881EA0301C2
:1036D0004FF0000001F00041704781EA030100F063
:1036E000B0B8F0BCBDE800414FF000002149704780
:1036F000FFFDFBF9F7F5F4F2F0EEEDEBE9E8E6E4B7
:10370000E3E1E0DEDDDBDAD8D7D5D4D3D1D0CFCD3D
:10371000CCCBCAC8C7C6C5C4C2C1C0BFBEBDBCBB76
:10372000BAB9B8B7B6B5B4B3B2B1B0AFAEADACAB71
:10373000AAA9A8A8A7A6A5A4A3A3A2A1A09F9F9E4B
:103740009D9C9C9B9A9999989797969595949393FD
:10375000929191908F8F8E8E8D8C8C8B8B8A898994
:103760008888878786858584848383828281818017
:103770000000FF070000F87F10F0004248BF404201
:10378000B0FA80F310FA03F10AD0C3F11D0303F578
:1037900080634FEA415002EB035202EBD1217047A4
:1037A0004FF0000070470EF1020E2EF0030E5EF88F
:1037B000046B364205D4012A43EB030515F5001FBF
:1037C00012D8012841EB010C1CF5001F0CD80ED1BA
:1037D0004FEAD17C15F5001F0CEB4C0C0CF1020CE0
:1037E00008BF4CEBD37C04E04FF0080C01E04FEA3B
:1037F000D37C0CEB4C0526FA05F606F00706B6F16D
:10380000040C06D20EEB860CBDE870404CF0010CA7
:103810006047DFE80CF0090B02024FF000414FF067
:103820000000A1F5002170BD19461046012851EB9A
:10383000010418BFD4F5001484BF002001F000413A
:1038400070BD0808A0F500114FEA31017047000073
:103850002DE9F04101F5801CBCF5001FC0F2C380CA
:103860004FEA115C21EA0C510CF1FD0C41F480117E
:103870005FEA5C0C0CF5C07C01D3400049413DA4DB
:10388000890241EA905187028E0E0A0CA45D04FB66
:1038900004F602FB06F6C6F14046A4FB0662F60DEE
:1038A00046EA422606FB06F4A4FB01235242C3F17A
:1038B000404338BF5B1EA6FB02420024E6FB032404
:1038C000D20B42EA4446A6FB0623A1FB02E2A3FB7D
:1038D00007E4A4184FF0000252F10002E3FB01429A
:1038E0006442C2F1404E38BFAEF1010EA6FB042384
:1038F0004FF00002E6FB0E32A2FB03464FF000043D
:10390000B61954F10004E2FB0264A1FB06E6A4FB35
:1039100007E816EB08064FF0000858F10008E4FB32
:1039200001687642C8F1405838BFA8F10108A2FBEF
:1039300006E4A3FB08E52D194FF0000454F1000440
:10394000E2FB0854A1FB05E6A7FB04E818EB060818
:103950004FF0000656F10006E1FB048618F1200541
:1039600056F10006A809A8F11B08B10908F03F08A4
:10397000B8F10A0F40EA86601CD901EB0C51BDE892
:10398000F08100BFFCF5EEE8E2DDD8D3CFCBC7C3B2
:10399000C0BDB9B6B4B1AEACA9A7A5A3A19F9D9B6C
:1039A0009A9896959392908F8D8C8B89888786852F
:1039B00084838281A0FB006800FB01F208EB4208CF
:1039C000B8EB872807D5341858EB0104D5D5401C2F
:1039D00051F10001D1E7341A78EB0104CDD4401E37
:1039E00071F10001C9E75FEA4C0C5FEA9C5C0DD104
:1039F00005D34FF0000001F00041BDE8F081BDE8C3
:103A0000F04170B5FFF7CFFE6DDBFFBEBDE8F041C2
:103A10004FF00000004970470000F87F43004FEA74
:103A2000D30C4FEA3C0C43401FBF40070CF16051E0
:103A300013F0FE4F70471CF0006F03D100200CF014
:103A4000004170470CF0004343EA507010B540EA63
:103A5000CC0000F022FA00BF000000924FEA000103
:103A6000FFF7EFBE4FF000414FF00000A1F500213D
:103A70007047000090EA010F48BF81F0004100F15B
:103A80005E82421A3CBF801A89184FEAD0524FF02A
:103A90007F4C1CEA410FA2EBD15318BF9CEA026F86
:103AA00000F03B804FF0004C4CEA00204CEA012132
:103AB00021FA03FC10EB0C0C1ED202F1FF325FEA7C
:103AC0001C2040EBC25038BF70471CF07F0F4FEAFC
:103AD000400C18BFBCF17F4F38BF7047C3F12003C3
:103AE000994008BF20F00100BCF17F4F38BF7047FC
:103AF000A0F1C04000F017BA4FEA3C00000A40EBCA
:103B0000C25028BF1CF0FF0F4FEA400CE6D018BF90
:103B1000BCF17F4F38BF7047EAE79CEA026F05D0DF
:103B200010EA5C0F08BF00F00040704710B500F0CD
:103B3000B4F900BF64FBBE3E014800F06EBA00BF9E
:103B40000000C07F4FF47F0C1CEAD0121EBF1CEA9D
:103B5000D11392EA0C0F93EA0C0F00F0858090EAE3
:103B6000010F48BF42F4807240F4000C41F40000A1
:103B70002CF07F4120F07F4000B58142A2EB030290
:103B80000FF2081CACEB504EC0F100009EF800E0B4
:103B90004FEA4E0E00FB0EFC38BF49004FEA2C1CCA
:103BA00002F5FA020CFB0EF34FEACE1E4FEA112C7F
:103BB0004FEAC1210EEB635E42EB22420EFB0CFC8E
:103BC0004FEA1C5300FB03114FEA112C4FEA01315D
:103BD0000EFB0CFC4FEADC4C00FB0C11C14228BF71
:103BE00009184CEB03335DF804EB10EB410143EB98
:103BF000C250B2F57C0F38BF704729D512F0F00FD4
:103C00001CBF00F1C04000F000407047008182837B
:103C10008485868788898B8C8D8E8F9192939596DB
:103C200097999A9C9D9FA0A2A3A5A7A8AAACAEB065
:103C3000B2B3B5B7B9BCBEC0C2C5C7C9CCCED1D46A
:103C4000D7D9DCDFE2E6E9ECF0F3F7FAFE0000009A
:103C50004FEA400C0CF1807CBCF17E4F28BF7047CE
:103C6000B0F1C04000F05FB990EA010F0CEAD11347
:103C700048BF42F48072624538BF634507D213F4EF
:103C80007F0F16D080EA010000F00040704710B5A9
:103C900000F003F9097EFC3E00F005B880EA01005F
:103CA00000F00040704780EA010000F0004000F0A2
:103CB0003AB912F47F0F04BF0248704780EA01004E
:103CC00000F031B90000C07F41000B0ED3F19E021D
:103CD00008D950F400034FEA032323FA02F048BF47
:103CE0004042704710B500F0D8F800BF49922480D8
:103CF000002070476FF0004282EA20007047000009
:103D0000C10DD1F19E0206DB4FEA002343F00043D0
:103D100023FA02F07047004207D54FEA4001B1F1A3
:103D2000FE4F02D24FF00000704710B500F0B5F81A
:103D300049922480002070476FEA200070470000FD
:103D400010F0004148BF4042B0FA80F310FA03F28D
:103D5000C3F19D030BD051EAC35101EB122053066E
:103D600038BF704700F1010008BF20F00100704724
:103D7000B0FA80F310FA03F2C3F19D030AD0D9051B
:103D800001EB1220530638BF704700F1010008BF55
:103D900020F00100704700004FF47F0C1CEAD012A5
:103DA0001EBF1CEAD11392EA0C0F93EA0C0F00F02D
:103DB000478090EA010F48BF42F480724FF0004CF8
:103DC0004CEA00204CEA012102EB0302A0FB0113A4
:103DD000A2F50002002918BF43F001035B0028BFD1
:103DE0004FEA330342EB22425FEA132C4CEBC25002
:103DF0002EBFBCEB436FB2F57C0F70474FEA036CEC
:103E0000BCF1004F08BF20F00100B2F57C0F38BFB5
:103E100070470BD582F0FF0212F5803FC8BF704794
:103E200000F1C040D8BF00F00040704700F5000C22
:103E30005FEA4C0C48BF7047B0F1C04000F073B867
:103E400090EA010F0CEAD11348BF42F48072624538
:103E500038BF634504D280EA010000F0004070479B
:103E600010B500F01AF800BF8900013E00F007B855
:103E700000F009B85FEA410C5FEA1C6C08D080EAE8
:103E8000010000F050B85FEA400C5FEA1C6CF6D10C
:103E90004FF00040A0F5800070470EF1020E2EF0AA
:103EA000030E5EF8044B244204D44FEA4102B2F1FF
:103EB0007F4F11D84FEA4003B3F17F4F0CD80ED19A
:103EC0004FEAD07CB2F17F4F0CEB4C0C0CF1020CA2
:103ED00008BF4CEBD17C04E04FF0080C01E04FEA46
:103EE000D17C0CEB4C0324FA03F404F00704B4F186
:103EF000040C06D20EEB840CBDE810404CF0010C13
:103F00006047DFE80CF0070802024FF00040A0F520
:103F1000800010BD0846420018BFD2F1807288BFF1
:103F200000F0004010BDFF2141EAD050C0057047AD
:103F300090EA010F48BF81F000413FF5A2AD421A5F
:103F400004D882F00042A0EB020011444FEAD052A4
:103F50004FF07F4C1CEA410FA2EBD15318BF9CEAF3
:103F6000026F4AD04FF0004C4CEA00204CEA01218D
:103F700021FA03FCB0EB0C0C0FD412F0FE0F36D07C
:103F80005FEA4C001DD5001240EBC25038BF7047AD
:103F90001CF03F0F18BF70470BE0A2F101025FEA6F
:103FA0001C2040EBC25038BF70471CF07F0F18BF79
:103FB0007047C3F12003994014BF401E20F0010058
:103FC000704780084FEA122308BF7047B0FA80FCA0
:103FD000A2EB0C02CCF1280C60FA0CF093EA122F41
:103FE00004BF00EBC25070474FEAC3707047130A1A
:103FF0005FEADC1008BF7047F6E79CEA026F04D066
:1040000010EA5C0F08BF0020704710B5FFF745FFAE
:1040100040DFF63E81F0004070470CF00F03092BA3
:1040200008BF082000F051800A2B0BD0082B18BFC6
:10403000704708BF1CF0400F0AD04FF000004FF04F
:10404000000170471CF0400F18BF4FF00040704750
:104050001CF0100F08D020F0704300F07F4242EABD
:10406000D3014FEA4370704700F0604021F07F4277
:1040700042EA000201F07F4040EA727070474FF060
:10408000FF0212EAD0521CBF92F0FF038B42C2BF64
:10409000D14200EBC1507047002A0AD0002B0BD050
:1040A000002900F00040A4BF40F0FE4040F40000B2
:1040B000704700F00040704743024FF00B0C18BFF0
:1040C0004CF0806C7FF438AD70471CF4801F11D029
:1040D0001CF4E02F03D06FEACC31490070474FF059
:1040E0004050EFF3008222F0704242EA000282F375
:1040F000008870474FF0000070470000000000008B
:104100000000000000000000000000000008080897
:104110000808080800001818000000486C24120065
:104120000000000000000000000000000024242423
:104130007F1212127F12121200000000081C2A2A9D
:104140000A0C1828282A2A1C080800000022251515
:1041500015152A585454542200000000000C121265
:10416000120A76252911916E00000006060403004C
:1041700000000000000000000000004020101008B7
:104180000808080808101020400000020408081061
:1041900010101010100808040200000000000808A9
:1041A0006B1C1C6B080800000000000000000808E1
:1041B00008087F0808080800000000000000000050
:1041C00000000000000006060403000000000000DC
:1041D0000000FE00000000000000000000000000E1
:1041E00000000000000006060000000080404020A3
:1041F00020101008080404020200000000182442E5
:1042000042424242424224180000000000080E08C8
:10421000080808080808083E00000000003C424268
:10422000422020100804427E00000000003C424270
:10423000201820404042221C0000000000203028AE
:10424000242422227E20207800000000007E02022A
:10425000021A26404042221C0000000000382402BE
:10426000021A26424242241800000000007E222248
:10427000101008080808080800000000003C42422E
:10428000422418244242423C00000000001824420C
:10429000424264584040241C00000000000000001E
:1042A00018180000000018180000000000000000AE
:1042B0000008000000000008080400000040201072
:1042C0000804020408102040000000000000000064
:1042D0007F0000007F0000000000000000020408D2
:1042E000102040201008040200000000003C424260
:1042F000464020101000181800000000001C225A30
:10430000555555552D42221C000000000008081884
:104310001414243C224242E700000000001F222225
:10432000221E22424242221F00000000007C424224
:10433000010101010142221C00000000001F224275
:10434000424242424242221F00000000003F42120D
:10435000121E12120242423F00000000003F4212B1
:10436000121E12120202020700000000003C22226C
:10437000010101712122221C0000000000E74242DD
:1043800042427E42424242E700000000003E0808EE
:10439000080808080808083E00000000007C10100B
:1043A0001010101010101010110F000000772212C2
:1043B0000A0E0A12122222770000000000070202F1
:1043C000020202020202427F00000000007736363D
:1043D00036362A2A2A2A2A6B0000000000E34646C5
:1043E0004A4A52525262624700000000001C2241B9
:1043F000414141414141221C00000000003F424236
:1044000042423E020202020700000000001C22415C
:10441000414141414D53321C60000000003F424287
:10442000423E1212222242C700000000007C42429B
:10443000020418204042423E00000000007F49086C
:10444000080808080808081C0000000000E74242AD
:10445000424242424242423C0000000000E74242E7
:10446000222424141418080800000000006B494995
:1044700049495555362222220000000000E7422417
:1044800024181818242442E7000000000077222294
:10449000141408080808081C00000000007E2120F1
:1044A000101008040442423F000000780808080881
:1044B0000808080808080808780000000202040438
:1044C00008080810102020204040001E1010101076
:1044D00010101010101010101E00003844000000C2
:1044E00000000000000000000000000000000000CC
:1044F000000000000000000000FF000608000000AF
:1045000000000000000000000000000000000000AB
:10451000003C4278444242FC0000000000030202DA
:10452000021A26424242261A000000000000000043
:10453000003844020202443800000000006040409D
:1045400040784442424264D800000000000000006D
:10455000003C427E0202423C0000000000F088085D
:10456000087E08080808083E00000000000000005F
:10457000007C22221C023C42423C0000000302025A
:10458000023A4642424242E700000000000C0C00A2
:10459000000E08080808083E000000000030300047
:1045A0000038202020202020221E000000030202CC
:1045B0000272120A1612227700000000000E08088C
:1045C000080808080808083E000000000000000075
:1045D000007F9292929292B70000000000000000CB
:1045E000003B4642424242E700000000000000005B
:1045F000003C42424242423C0000000000000000F9
:10460000001B26424242221E02070000000000005A
:10461000007844424242447840E00000000000003C
:1046200000774C040404041F000000000000000098
:10463000007C42023C40423E0000000000000008B6
:10464000083E0808080808300000000000000000CC
:1046500000634242424262DC0000000000000000B1
:1046600000E74224241408080000000000000000B5
:1046700000EB4949555522220000000000000000CF
:10468000007624181818246E0000000000000000B6
:1046900000E7422424141808080700000000000066
:1046A000007E22100808447E000000C02020202048
:1046B0002010202020202020C000101010101010EA
:1046C0001010101010101010101000060808080824
:1046D000081008080808080806000C32C20000008C
:1046E0000000000000000000000000103C003C0042
:1046F000011BFFFFFFFFFFFFFFFFFFFFFFFFFFFFAC
:10470000FFFFFFFFFFFFFFFFFFFFFFFFFFFFFFFFB9
:10471000FFFFFFFFFFFFFFFFFFFFFFFFFFFFFFFFA9
:10472000FFFFFFFFFFFFFFFFFFFFFFFFFFFFFFFF99
:10473000FFFFFFFFFFFFFFFFFFFFFFFFFFFFFFFF89
:10474000FFFFFFFFFFFFFFFFFFFFFFFFFFFFFFFF79
:10475000FFFFFFFFFFFFFFFFFFFFFFFFFFFFFFFF69
:10476000FFFFFFFFFFFFFFFFFFFFFFFFFFFFFFFF59
:10477000FFFFFFFFFFFFFFFFFFFFFFFFFFFFFFFF49
:10478000FFFFFFFFFFFFFFFFFFFFFFFFFFFFFFFF39
:10479000FFFFFFFFFFFFFFFFFFFFFFFFFFFFFFFF29
:1047A000FFFFFFFFFFFFFFFFFFFFFFFFFFFFFFFF19
:1047B000FFFFFFFFFFFFFFFFFFFFFFFFFFFFFFFF09
:1047C000FFFFFFFFFFFFFFFFFFFFFFFFFFFFFFFFF9
:1047D000FFFFFFFFFFFFFFFFFFFFFFFFFFFFFFFFE9
:1047E000FFFFFFFFFFFFFFFFFFFFFFFFFFFFFFFFD9
:1047F000FFFFFFFFFFFFFFFFFFFFFFFFFFFFFFFFC9
:10480000FFFFFFFFFFFFFFFFFFFFFFFFFFFF18C6D8
:1048100018C61084108410841084108410841084AE
:10482000108418C618C6FFFFFFFFFFFFFFFFFFFF42
:10483000FFFFFFFFFFFFFFFFFFFFFFFFFFFFFFFF88
:10484000FFFFFFFFFFFFFFFFFFFFFFFFFFFFFFFF78
:10485000FFFFFFFFFFFFFFFFFFFFFFFFFFFFFFFF68
:10486000FFFFFFFFFFFFFFFFFFFFFFFFFFFFFFFF58
:10487000FFFFFFFFFFFFFFFFFFFFFFFFFFFFFFFF48
:104880001084108400000000000000000000000000
:104890000000000000000000000000000000000018
:1048A000108418C6FFFFFFFFFFFFFFFFFFFFFFFFA2
:1048B000FFFFFFFFFFFFFFFFFFFFFFFFFFFFFFFF08
:1048C000FFFFFFFFFFFFFFFFFFFFFFFFFFFFFFFFF8
:1048D000FFFFFFFFFFFFFFFFFFFFFFFFFFFFFFFFE8
:1048E000FFFFFFFFFFFFFFFFFFFFFFFFFFFFFFFFD8
:1048F000FFFF18C610840000000000000000000048
:1049000000000000000000000000000000000000A7
:104910000000000000000000000000000000108403
:1049200018C6FFFFFFFFFFFFFFFFFFFFFFFFFFFFB7
:10493000FFFFFFFFFFFFFFFFFFFFFFFFFFFFFFFF87
:10494000FFFFFFFFFFFFFFFFFFFFFFFFFFFFFFFF77
:10495000FFFFFFFFFFFFFFFFFFFFFFFFFFFFFFFF67
:10496000FFFFFFFFFFFF18C61084000000000000DB
:104970000000000000000000000000000000000037
:104980000000000000000000000000000000000027
:1049900000000000000000000000108418C6FFFFA7
:1049A000FFFFFFFFFFFFFFFFFFFFFFFFFFFFFFFF17
:1049B000FFFFFFFFFFFFFFFFFFFFFFFFFFFFFFFF07
:1049C000FFFFFFFFFFFFFFFFFFFFFFFFFFFFFFFFF7
:1049D000FFFFFFFFFFFFFFFFFFFFFFFF108400004F
:1049E00000000000000000000000000000000000C7
:1049F00000000000000000000000000000000000B7
:104A000000000000000000000000000000000000A6
:104A10000000000000001084FFFFFFFFFFFFFFFF0A
:104A2000FFFFFFFFFFFFFFFFFFFFFFFFFFFFFFFF96
:104A3000FFFFFFFFFFFFFFFFFFFFFFFFFFFFFFFF86
:104A4000FFFFFFFFFFFFFFFFFFFFFFFFFFFFFFFF76
:104A500018C6000000000000000000000000000078
:104A60000000000000000000000000000000000046
:104A70000000000000000000000000000000000036
:104A80000000000000000000000000000000000026
:104A9000108418C6FFFFFFFFFFFFFFFFFFFFFFFFB0
:104AA000FFFFFFFFFFFFFFFFFFFFFFFFFFFFFFFF16
:104AB000FFFFFFFFFFFFFFFFFFFFFFFFFFFFFFFF06
:104AC000FFFFFFFFFFFF1084000000000000000058
:104AD00000000000000000000000000000000000D6
:104AE00000000000000000000000000000000000C6
:104AF00000000000000000000000000000000000B6
:104B000000000000000000000000000018C6FFFFC9
:104B1000FFFFFFFFFFFFFFFFFFFFFFFFFFFFFFFFA5
:104B2000FFFFFFFFFFFFFFFFFFFFFFFFFFFFFFFF95
:104B3000FFFFFFFFFFFFFFFFFFFFFFFF10840000ED
:104B40000000000000000000000000000000000065
:104B50000000000000000000000000000000E0076E
:104B60000004000400040000000000000000000039
:104B70000000000000000000000000000000000035
:104B800000000000000018C6FFFFFFFFFFFFFFFF4F
:104B9000FFFFFFFFFFFFFFFFFFFFFFFFFFFFFFFF25
:104BA000FFFFFFFFFFFFFFFFFFFFFFFFFFFFFFFF15
:104BB000FFFF108400000000000000000000000063
:104BC00000000000000000000000000000000000E5
:104BD000000000000004E007E007E007E007000431
:104BE00000000000000000000000000000000000C5
:104BF00000000000000000000000000000000000B5
:104C000018C6FFFFFFFFFFFFFFFFFFFFFFFFFFFFD4
:104C1000FFFFFFFFFFFFFFFFFFFFFFFFFFFFFFFFA4
:104C2000FFFFFFFFFFFFFFFF1084000000000000F8
:104C30000000000000000000000000000000000074
:104C40000000000000000000000000000004E00779
:104C5000E007E007E007000400000000000000009B
:104C60000000000000000000000000000000000044
:104C70000000000000000000000018C6FFFFFFFF5A
:104C8000FFFFFFFFFFFFFFFFFFFFFFFFFFFFFFFF34
:104C9000FFFFFFFFFFFFFFFFFFFFFFFFFFFF18C644
:104CA0000000000000000000000000000000000004
:104CB00000000000000000000000000000000000F4
:104CC000000000000004E007E007E007E007000440
:104CD00000000000000000000000000000000000D4
:104CE00000000000000000000000000000000000C4
:104CF0000000000018C6FFFFFFFFFFFFFFFFFFFFE0
:104D0000FFFFFFFFFFFFFFFFFFFFFFFFFFFFFFFFB3
:104D1000FFFFFFFF18C600000000000000000000B9
:104D20000000000000000000000000000000000083
:104D30000000000000000000000000000004E00788
:104D4000E007E007E00700040000000000000000AA
:104D50000000000000000000000000000000000053
:104D60000000000000000000000000000000FFFF45
:104D7000FFFFFFFFFFFFFFFFFFFFFFFFFFFFFFFF43
:104D8000FFFFFFFFFFFFFFFFFFFFFFFF108400009B
:104D90000000000000000000000000000000000013
:104DA0000000000000000000000000000000000003
:104DB000000000000004E007E007E007E00700044F
:104DC00000000000000000000000000000000000E3
:104DD00000000000000000000000000000000000D3
:104DE00000000000000018C6FFFFFFFFFFFFFFFFED
:104DF000FFFFFFFFFFFFFFFFFFFFFFFFFFFFFFFFC3
:104E0000FFFF18C6000000000000000000000000C6
:104E10000000000000000000000000000000000092
:104E20000000008400000000000000000004E00713
:104E3000E007E007E00700040000000000000000B9
:104E4000000010040000000000000000000000004E
:104E50000000000000000000000000000000000052
:104E600018C6FFFFFFFFFFFFFFFFFFFFFFFFFFFF72
:104E7000FFFFFFFFFFFFFFFFFFFF108400000000A8
:104E80000000000000000000000000000000000022
:104E90000000000000000084E0FFE0FF008400004C
:104EA000000000000004E007E007E007E00700045E
:104EB000000000000000000010041F0010040000AB
:104EC00000000000000000000000000000000000E2
:104ED00000000000000000001084FFFFFFFFFFFF44
:104EE000FFFFFFFFFFFFFFFFFFFFFFFFFFFFFFFFD2
:104EF00018C60000000000000000000000000000D4
:104F00000000000000000000000000000084E0FF3E
:104F1000E0FFE0FF00840000000000000004E00764
:104F2000E007E007E00700040000000000000000C8
:104F300010041F001F00100400000000000000000B
:104F40000000000000000000000000000000000061
:104F5000000018C6FFFFFFFFFFFFFFFFFFFFFFFF7F
:104F6000FFFFFFFFFFFFFFFF1084000000000000B5
:104F70000000000000000000000000000000000031
:104F8000000000000084E0FFE0FFE0FF008400007C
:104F9000000000000004E007E007E007E00700046D
:104FA000000000000000000010041F001F0010049B
:104FB00000000000000000000000000000000000F1
:104FC000000000000000000000001084FFFFFFFF51
:104FD000FFFFFFFFFFFFFFFFFFFFFFFFFFFFFFFFE1
:104FE00000000000000000000000000000000000C1
:104FF0000000000000000000000000000084E0FF4E
:10500000E0FFE0FF00840000000000000004E00773
:10501000E007E007E00700040000000000000000D7
:1050200010041F001F00100400000000000000001A
:105030000000000000000000000000000000000070
:1050400000000000FFFFFFFFFFFFFFFFFFFFFFFF6C
:10505000FFFFFFFFFFFF18C6000000000000000078
:105060000000000000000000000000000000000040
:10507000000000000084E0FFE0FFE0FF008400008B
:10508000000000000004E007E007E007E00700047C
:10509000000000000000000010041F001F001004AA
:1050A0000000000000000000000000000000000000
:1050B00000000000000000000000000018C6FFFF14
:1050C000FFFFFFFFFFFFFFFFFFFFFFFFFFFF10845A
:1050D00000000000000000000000000000000000D0
:1050E0000000000000000000000000000084E0FF5D
:1050F000E0FFE0FF00840000000000000004E00783
:10510000E007E007E00700040000000000000000E6
:1051100010041F001F001004000000000000000029
:10512000000000000000000000000000000000007F
:10513000000000001084FFFFFFFFFFFFFFFFFFFFE5
:10514000FFFFFFFFFFFF0000000000000000000065
:10515000000000000000008000800000000000004F
:10516000000000000084E0FFE0FFE0FF008400009A
:10517000000000000004E007E007E007E00700048B
:10518000000000000000000010041F001F001004B9
:1051900000000000000000000000108010800000EF
:1051A0000000000000000000000000000000FFFF01
:1051B000FFFFFFFFFFFFFFFFFFFFFFFF18C600001D
:1051C000000000000000000000000000008000F867
:1051D00000F8008000000000000000000084E0FFF4
:1051E000E0FFE0FF00840000000000000004E00792
:1051F000E007E007E00700040000000000000000F6
:1052000010041F001F001004000000000000000038
:105210001FF81FF81FF810800000000000000000B9
:1052200000000000000018C6FFFFFFFFFFFFFFFFA8
:10523000FFFFFFFF18C60000000000000000000094
:105240000000000000F800F800F800F8000000007E
:10525000000000000084E0FFE0FFE0FF00840000A9
:10526000000000000004E007E007E007E00700049A
:10527000000000000000000010041F001F001004C8
:1052800000000000000000001FF81FF81FF8108049
:10529000000000000000000000000000000018C630
:1052A000FFFFFFFFFFFFFFFFFFFFFFFF1084000076
:1052B00000000000000000000000000000F800F8FE
:1052C00000F800F800000000000000000084E0FF8B
:1052D000E0FFE0FF00840000000000000004E007A1
:1052E000E007E007E0070004000000000000000005
:1052F00010041F001F001004000000000000000048
:105300001FF81FF81FF810800000000000000000C8
:105310000000000000001084FFFFFFFFFFFFFFFF01
:10532000FFFFFFFF108400000000000000000000ED
:105330000000000000F800F800F800F8000000008D
:10534000000000000084E0FFE0FFE0FF00840000B8
:10535000000000000004E007E007E007E0070004A9
:10536000000000000000000010041F001F001004D7
:1053700000000000000000001FF81FF81FF8108058
:105380000000000000000000000000000000108489
:10539000FFFFFFFFFFFFFFFFFFFFFFFF1084000085
:1053A00000000000000000000000000000F800F80D
:1053B00000F800F800000000000000000084E0FF9A
:1053C000E0FFE0FF00840000000000000004E007B0
:1053D000E007E007E0070004000000000000000014
:1053E00010041F001F001004000000000000000057
:1053F0001FF81FF81FF810800000000000000000D8
:105400000000000000001084FFFFFFFFFFFFFFFF10
:10541000FFFFFFFF108400000000000000000000FC
:105420000000000000F800F800F800F8000000009C
:10543000000000000084E0FFE0FFE0FF00840000C7
:10544000000000000004E007E007E007E0070004B8
:10545000000000000000000010041F001F001004E6
:1054600000000000000000001FF81FF81FF8108067
:105470000000000000000000000000000000108498
:10548000FFFFFFFFFFFFFFFFFFFFFFFF1084000094
:1054900000000000000000000000000000F800F81C
:1054A00000F800F800000000000000000084E0FFA9
:1054B000E0FFE0FF00840000000000000004E007BF
:1054C000E007E007E0070004000000000000000023
:1054D00010041F001F001004000000000000000066
:1054E0001FF81FF81FF810800000000000000000E7
:1054F0000000000000001084FFFFFFFFFFFFFFFF20
:10550000FFFFFFFF1084000000000000000000000B
:105510000000000000F800F800F800F800000000AB
:10552000000000000084E0FFE0FFE0FF00840000D6
:10553000000000000004E007E007E007E0070004C7
:10554000000000000000000010041F001F001004F5
:1055500000000000000000001FF81FF81FF8108076
:1055600000000000000000000000000000001084A7
:10557000FFFFFFFFFFFFFFFFFFFFFFFF10840000A3
:1055800000000000000000000000000000F800F82B
:1055900000F800F800000000000000000084E0FFB8
:1055A000E0FFE0FF00840000000000000004E007CE
:1055B000E007E007E0070004000000000000000032
:1055C00010041F001F001004000000000000000075
:1055D0001FF81FF81FF810800000000000000000F6
:1055E0000000000000001084FFFFFFFFFFFFFFFF2F
:1055F000FFFFFFFF1084000000000000000000001B
:105600000000000000F800F800F800F800000000BA
:10561000000000000084E0FFE0FFE0FF00840000E5
:10562000000000000004E007E007E007E0070004D6
:10563000000000000000000010041F001F00100404
:1056400000000000000000001FF81FF81FF8108085
:1056500000000000000000000000000000001084B6
:10566000FFFFFFFFFFFFFFFFFFFFFFFF18C6000068
:1056700000000000000000000000000000F800F83A
:1056800000F800F800000000000000000084E0FFC7
:10569000E0FFE0FF00840000000000000004E007DD
:1056A000E007E007E0070004000000000000000041
:1056B00010041F001F001004000000000000000084
:1056C0001FF81FF81FF81080000000000000000005
:1056D00000000000000018C6FFFFFFFFFFFFFFFFF4
:1056E000FFFFFFFF18C600000000000000000000E0
:1056F0000000000000F800F800F800F800000000CA
:10570000000000000084E0FFE0FFE0FF00840000F4
:10571000000000000004E007E007E007E0070004E5
:10572000000000000000000010041F001F00100413
:1057300000000000000000001FF81FF81FF8108094
:10574000000000000000000000000000000018C67B
:10575000FFFFFFFFFFFFFFFFFFFFFFFFFFFF000057
:10576000000000000000000000000000008000F8C1
:1057700000F8008000000000000000000084E0FF4E
:10578000E0FFE0FF00840000000000000004E007EC
:10579000E007E007E0070004000000000000000050
:1057A00010041F001F001004000000000000000093
:1057B0001FF81FF81FF81080000000000000000014
:1057C000000000000000FFFFFFFFFFFFFFFFFFFFE3
:1057D000FFFFFFFFFFFF108400000000000000003B
:1057E00000000000000000800080000000000000B9
:1057F000000000000084E0FFE0FFE0FF0084000004
:10580000000000000004E007E007E007E0070004F4
:10581000000000000000000010041F001F00100422
:105820000000000000000000000010801080000058
:105830000000000000000000000000001084FFFFD6
:10584000FFFFFFFFFFFFFFFFFFFFFFFFFFFF1084D2
:105850000000000000000000000000000000000048
:105860000000000000000000000000000084E0FFD5
:10587000E0FFE0FF00840000000000000004E007FB
:10588000E007E007E007000400000000000000005F
:1058900010041F001F0010040000000000000000A2
:1058A00000000000000000000000000000000000F8
:1058B000000000001084FFFFFFFFFFFFFFFFFFFF5E
:1058C000FFFFFFFFFFFF18C6000000000000000000
:1058D00000000000000000000000000000000000C8
:1058E000000000000084E0FFE0FFE0FF0084000013
:1058F000000000000004E007E007E007E007000404
:10590000000000000000000010041F001F00100431
:105910000000000000000000000000000000000087
:10592000000000000000000000000000FFFFFFFF7B
:10593000FFFFFFFFFFFFFFFFFFFFFFFFFFFFFFFF77
:1059400010840000000000000000000000000000C3
:105950000000000000000000000000000084E0FFE4
:10596000E0FFE0FF00840000000000000004E0070A
:10597000E007E007E007000400000000000000006E
:1059800010041F001F0010040000000000000000B1
:105990000000000000000000000000000000000007
:1059A00000001084FFFFFFFFFFFFFFFFFFFFFFFF6F
:1059B000FFFFFFFFFFFFFFFF18C600000000000011
:1059C00000000000000000000000000000000000D7
:1059D000000000000084E0FFE0FFE0FF0084000022
:1059E000000000000004E007E007E007E007000413
:1059F000000000000000000010041F001F00100441
:105A00000000000000000000000000000000000096
:105A10000000000000000000000018C6FFFFFFFFAC
:105A2000FFFFFFFFFFFFFFFFFFFFFFFFFFFFFFFF86
:105A3000FFFF1084000000000000000000000000D4
:105A40000000000000000000000000000084E0FFF3
:105A5000E0FFE0FF00840000000000000004E00719
:105A6000E007E007E007000400000000000000007D
:105A700010041F001F0010040000000000000000C0
:105A80000000000000000000000000000000000016
:105A90001084FFFFFFFFFFFFFFFFFFFFFFFFFFFF80
:105AA000FFFFFFFFFFFFFFFFFFFF18C60000000022
:105AB00000000000000000000000000000000000E6
:105AC0000000000000000084E0FFE0FF0084000010
:105AD000000000000004E007E007E007E007000422
